{
  "contractName": "KBRGame",
  "abi": [
    {
      "inputs": [
        {
          "internalType": "address",
          "name": "_oracle",
          "type": "address"
        },
        {
          "internalType": "address",
          "name": "_busd",
          "type": "address"
        },
        {
          "internalType": "address",
          "name": "_link",
          "type": "address"
        },
        {
          "internalType": "address",
          "name": "_kawaii",
          "type": "address"
        }
      ],
      "stateMutability": "nonpayable",
      "type": "constructor"
    },
    {
      "anonymous": false,
      "inputs": [
        {
          "indexed": false,
          "internalType": "uint256",
          "name": "newAmount",
          "type": "uint256"
        }
      ],
      "name": "DefaultStakeUpdated",
      "type": "event"
    },
    {
      "anonymous": false,
      "inputs": [
        {
          "indexed": false,
          "internalType": "address",
          "name": "playerAddress",
          "type": "address"
        }
      ],
      "name": "NewUserStakedAccess",
      "type": "event"
    },
    {
      "anonymous": false,
      "inputs": [
        {
          "indexed": true,
          "internalType": "address",
          "name": "previousOwner",
          "type": "address"
        },
        {
          "indexed": true,
          "internalType": "address",
          "name": "newOwner",
          "type": "address"
        }
      ],
      "name": "OwnershipTransferred",
      "type": "event"
    },
    {
      "anonymous": false,
      "inputs": [
        {
          "indexed": false,
          "internalType": "address",
          "name": "playerAddress",
          "type": "address"
        }
      ],
      "name": "UserWithdrewStake",
      "type": "event"
    },
    {
      "inputs": [],
      "name": "defaultStake",
      "outputs": [
        {
          "internalType": "uint256",
          "name": "",
          "type": "uint256"
        }
      ],
      "stateMutability": "view",
      "type": "function"
    },
    {
      "inputs": [],
      "name": "minStakeDays",
      "outputs": [
        {
          "internalType": "uint256",
          "name": "",
          "type": "uint256"
        }
      ],
      "stateMutability": "view",
      "type": "function"
    },
    {
      "inputs": [],
      "name": "owner",
      "outputs": [
        {
          "internalType": "address",
          "name": "",
          "type": "address"
        }
      ],
      "stateMutability": "view",
      "type": "function"
    },
    {
      "inputs": [
        {
          "internalType": "address",
          "name": "",
          "type": "address"
        }
      ],
      "name": "players",
      "outputs": [
        {
          "internalType": "uint256",
          "name": "timeJoined",
          "type": "uint256"
        },
        {
          "internalType": "uint256",
          "name": "amountStaked",
          "type": "uint256"
        }
      ],
      "stateMutability": "view",
      "type": "function"
    },
    {
      "inputs": [],
      "name": "renounceOwnership",
      "outputs": [],
      "stateMutability": "nonpayable",
      "type": "function"
    },
    {
      "inputs": [
        {
          "internalType": "address",
          "name": "newOwner",
          "type": "address"
        }
      ],
      "name": "transferOwnership",
      "outputs": [],
      "stateMutability": "nonpayable",
      "type": "function"
    },
    {
      "inputs": [],
      "name": "stakeToPlayBUSD",
      "outputs": [],
      "stateMutability": "payable",
      "type": "function"
    },
    {
      "inputs": [],
      "name": "stakeToPlayLINK",
      "outputs": [],
      "stateMutability": "payable",
      "type": "function"
    },
    {
      "inputs": [],
      "name": "withdrawStake",
      "outputs": [],
      "stateMutability": "nonpayable",
      "type": "function"
    },
    {
      "inputs": [
        {
          "internalType": "uint256",
          "name": "_defaultStake",
          "type": "uint256"
        }
      ],
      "name": "updateDefaultStake",
      "outputs": [],
      "stateMutability": "nonpayable",
      "type": "function"
    }
  ],
  "bytecode": "0x608060405234801561001057600080fd5b506040516115aa3803806115aa8339818101604052608081101561003357600080fd5b8101908080519060200190929190805190602001909291908051906020019092919080519060200190929190505050600061007261023760201b60201c565b9050806000806101000a81548173ffffffffffffffffffffffffffffffffffffffff021916908373ffffffffffffffffffffffffffffffffffffffff1602179055508073ffffffffffffffffffffffffffffffffffffffff16600073ffffffffffffffffffffffffffffffffffffffff167f8be0079c531659141344cd1fd0a4f28419497f9722a3daafe3b4186f6b6457e060405160405180910390a35083600160006101000a81548173ffffffffffffffffffffffffffffffffffffffff021916908373ffffffffffffffffffffffffffffffffffffffff16021790555082600260006101000a81548173ffffffffffffffffffffffffffffffffffffffff021916908373ffffffffffffffffffffffffffffffffffffffff16021790555081600360006101000a81548173ffffffffffffffffffffffffffffffffffffffff021916908373ffffffffffffffffffffffffffffffffffffffff16021790555080600460006101000a81548173ffffffffffffffffffffffffffffffffffffffff021916908373ffffffffffffffffffffffffffffffffffffffff1602179055506801a055690d9db8000060058190555062278d006006819055505050505061023f565b600033905090565b61135c8061024e6000396000f3fe6080604052600436106100915760003560e01c8063a315ca9811610059578063a315ca9814610174578063ad6d14b81461019f578063bed9d861146101a9578063e2eb41ff146101c0578063f2fde38b1461022c57610091565b8063117bb97a14610096578063185ca25c146100c1578063715018a6146100fc5780638da5cb5b146101135780639dafe8a21461016a575b600080fd5b3480156100a257600080fd5b506100ab61027d565b6040518082815260200191505060405180910390f35b3480156100cd57600080fd5b506100fa600480360360208110156100e457600080fd5b8101908080359060200190929190505050610283565b005b34801561010857600080fd5b5061011161038f565b005b34801561011f57600080fd5b50610128610517565b604051808273ffffffffffffffffffffffffffffffffffffffff1673ffffffffffffffffffffffffffffffffffffffff16815260200191505060405180910390f35b610172610540565b005b34801561018057600080fd5b506101896109d7565b6040518082815260200191505060405180910390f35b6101a76109dd565b005b3480156101b557600080fd5b506101be610e74565b005b3480156101cc57600080fd5b5061020f600480360360208110156101e357600080fd5b81019080803573ffffffffffffffffffffffffffffffffffffffff1690602001909291905050506110ad565b604051808381526020018281526020019250505060405180910390f35b34801561023857600080fd5b5061027b6004803603602081101561024f57600080fd5b81019080803573ffffffffffffffffffffffffffffffffffffffff1690602001909291905050506110d1565b005b60055481565b61028b6112de565b73ffffffffffffffffffffffffffffffffffffffff166000809054906101000a900473ffffffffffffffffffffffffffffffffffffffff1673ffffffffffffffffffffffffffffffffffffffff161461034c576040517f08c379a00000000000000000000000000000000000000000000000000000000081526004018080602001828103825260208152602001807f4f776e61626c653a2063616c6c6572206973206e6f7420746865206f776e657281525060200191505060405180910390fd5b806005819055507f93718c1dd57bae794a21a0f31028d65c6eec10a02f433b4ceb30c6bde7f0e8b76005546040518082815260200191505060405180910390a150565b6103976112de565b73ffffffffffffffffffffffffffffffffffffffff166000809054906101000a900473ffffffffffffffffffffffffffffffffffffffff1673ffffffffffffffffffffffffffffffffffffffff1614610458576040517f08c379a00000000000000000000000000000000000000000000000000000000081526004018080602001828103825260208152602001807f4f776e61626c653a2063616c6c6572206973206e6f7420746865206f776e657281525060200191505060405180910390fd5b600073ffffffffffffffffffffffffffffffffffffffff166000809054906101000a900473ffffffffffffffffffffffffffffffffffffffff1673ffffffffffffffffffffffffffffffffffffffff167f8be0079c531659141344cd1fd0a4f28419497f9722a3daafe3b4186f6b6457e060405160405180910390a360008060006101000a81548173ffffffffffffffffffffffffffffffffffffffff021916908373ffffffffffffffffffffffffffffffffffffffff160217905550565b60008060009054906101000a900473ffffffffffffffffffffffffffffffffffffffff16905090565b6000600260009054906101000a900473ffffffffffffffffffffffffffffffffffffffff1673ffffffffffffffffffffffffffffffffffffffff1663dd62ed3e33600160009054906101000a900473ffffffffffffffffffffffffffffffffffffffff166040518363ffffffff1660e01b8152600401808373ffffffffffffffffffffffffffffffffffffffff1673ffffffffffffffffffffffffffffffffffffffff1681526020018273ffffffffffffffffffffffffffffffffffffffff1673ffffffffffffffffffffffffffffffffffffffff1681526020019250505060206040518083038186803b15801561063757600080fd5b505afa15801561064b573d6000803e3d6000fd5b505050506040513d602081101561066157600080fd5b810190808051906020019092919050505090506005548110156106ec576040517f08c379a00000000000000000000000000000000000000000000000000000000081526004018080602001828103825260198152602001807f436865636b2074686520746f6b656e20616c6c6f77616e63650000000000000081525060200191505060405180910390fd5b600260009054906101000a900473ffffffffffffffffffffffffffffffffffffffff1673ffffffffffffffffffffffffffffffffffffffff166323b872dd6107326112de565b600160009054906101000a900473ffffffffffffffffffffffffffffffffffffffff166005546040518463ffffffff1660e01b8152600401808473ffffffffffffffffffffffffffffffffffffffff1673ffffffffffffffffffffffffffffffffffffffff1681526020018373ffffffffffffffffffffffffffffffffffffffff1673ffffffffffffffffffffffffffffffffffffffff1681526020018281526020019350505050602060405180830381600087803b1580156107f457600080fd5b505af1158015610808573d6000803e3d6000fd5b505050506040513d602081101561081e57600080fd5b8101908080519060200190929190505050506108386112e6565b604051806040016040528042815260200183815250905080600760003373ffffffffffffffffffffffffffffffffffffffff1673ffffffffffffffffffffffffffffffffffffffff1681526020019081526020016000206000820151816000015560208201518160010155905050600460009054906101000a900473ffffffffffffffffffffffffffffffffffffffff1673ffffffffffffffffffffffffffffffffffffffff166340c10f1933686c6b935b8bbd4000006040518363ffffffff1660e01b8152600401808373ffffffffffffffffffffffffffffffffffffffff1673ffffffffffffffffffffffffffffffffffffffff16815260200182815260200192505050600060405180830381600087803b15801561095857600080fd5b505af115801561096c573d6000803e3d6000fd5b505050507f2e39a1ed43aeb06524012eac1f56a5176f5666b076f1b5530f1212ca44aac44033604051808273ffffffffffffffffffffffffffffffffffffffff1673ffffffffffffffffffffffffffffffffffffffff16815260200191505060405180910390a15050565b60065481565b6000600360009054906101000a900473ffffffffffffffffffffffffffffffffffffffff1673ffffffffffffffffffffffffffffffffffffffff1663dd62ed3e33600160009054906101000a900473ffffffffffffffffffffffffffffffffffffffff166040518363ffffffff1660e01b8152600401808373ffffffffffffffffffffffffffffffffffffffff1673ffffffffffffffffffffffffffffffffffffffff1681526020018273ffffffffffffffffffffffffffffffffffffffff1673ffffffffffffffffffffffffffffffffffffffff1681526020019250505060206040518083038186803b158015610ad457600080fd5b505afa158015610ae8573d6000803e3d6000fd5b505050506040513d6020811015610afe57600080fd5b81019080805190602001909291905050509050600554811015610b89576040517f08c379a00000000000000000000000000000000000000000000000000000000081526004018080602001828103825260198152602001807f436865636b2074686520746f6b656e20616c6c6f77616e63650000000000000081525060200191505060405180910390fd5b600360009054906101000a900473ffffffffffffffffffffffffffffffffffffffff1673ffffffffffffffffffffffffffffffffffffffff166323b872dd610bcf6112de565b600160009054906101000a900473ffffffffffffffffffffffffffffffffffffffff166005546040518463ffffffff1660e01b8152600401808473ffffffffffffffffffffffffffffffffffffffff1673ffffffffffffffffffffffffffffffffffffffff1681526020018373ffffffffffffffffffffffffffffffffffffffff1673ffffffffffffffffffffffffffffffffffffffff1681526020018281526020019350505050602060405180830381600087803b158015610c9157600080fd5b505af1158015610ca5573d6000803e3d6000fd5b505050506040513d6020811015610cbb57600080fd5b810190808051906020019092919050505050610cd56112e6565b604051806040016040528042815260200183815250905080600760003373ffffffffffffffffffffffffffffffffffffffff1673ffffffffffffffffffffffffffffffffffffffff1681526020019081526020016000206000820151816000015560208201518160010155905050600460009054906101000a900473ffffffffffffffffffffffffffffffffffffffff1673ffffffffffffffffffffffffffffffffffffffff166340c10f1933686c6b935b8bbd4000006040518363ffffffff1660e01b8152600401808373ffffffffffffffffffffffffffffffffffffffff1673ffffffffffffffffffffffffffffffffffffffff16815260200182815260200192505050600060405180830381600087803b158015610df557600080fd5b505af1158015610e09573d6000803e3d6000fd5b505050507f2e39a1ed43aeb06524012eac1f56a5176f5666b076f1b5530f1212ca44aac44033604051808273ffffffffffffffffffffffffffffffffffffffff1673ffffffffffffffffffffffffffffffffffffffff16815260200191505060405180910390a15050565b610e7c6112e6565b600760003373ffffffffffffffffffffffffffffffffffffffff1673ffffffffffffffffffffffffffffffffffffffff16815260200190815260200160002060405180604001604052908160008201548152602001600182015481525050905060065481600001510181600001511015610f5e576040517f08c379a00000000000000000000000000000000000000000000000000000000081526004018080602001828103825260138152602001807f43616e6e6f74207769746864726177207965740000000000000000000000000081525060200191505060405180910390fd5b600260009054906101000a900473ffffffffffffffffffffffffffffffffffffffff1673ffffffffffffffffffffffffffffffffffffffff1663a9059cbb3383602001516040518363ffffffff1660e01b8152600401808373ffffffffffffffffffffffffffffffffffffffff1673ffffffffffffffffffffffffffffffffffffffff16815260200182815260200192505050602060405180830381600087803b15801561100b57600080fd5b505af115801561101f573d6000803e3d6000fd5b505050506040513d602081101561103557600080fd5b8101908080519060200190929190505050507f92992d27d46b644b1d1432486a26e0484b95ead78f29232023c078eaa0c25fa133604051808273ffffffffffffffffffffffffffffffffffffffff1673ffffffffffffffffffffffffffffffffffffffff16815260200191505060405180910390a150565b60076020528060005260406000206000915090508060000154908060010154905082565b6110d96112de565b73ffffffffffffffffffffffffffffffffffffffff166000809054906101000a900473ffffffffffffffffffffffffffffffffffffffff1673ffffffffffffffffffffffffffffffffffffffff161461119a576040517f08c379a00000000000000000000000000000000000000000000000000000000081526004018080602001828103825260208152602001807f4f776e61626c653a2063616c6c6572206973206e6f7420746865206f776e657281525060200191505060405180910390fd5b600073ffffffffffffffffffffffffffffffffffffffff168173ffffffffffffffffffffffffffffffffffffffff161415611220576040517f08c379a00000000000000000000000000000000000000000000000000000000081526004018080602001828103825260268152602001806113016026913960400191505060405180910390fd5b8073ffffffffffffffffffffffffffffffffffffffff166000809054906101000a900473ffffffffffffffffffffffffffffffffffffffff1673ffffffffffffffffffffffffffffffffffffffff167f8be0079c531659141344cd1fd0a4f28419497f9722a3daafe3b4186f6b6457e060405160405180910390a3806000806101000a81548173ffffffffffffffffffffffffffffffffffffffff021916908373ffffffffffffffffffffffffffffffffffffffff16021790555050565b600033905090565b60405180604001604052806000815260200160008152509056fe4f776e61626c653a206e6577206f776e657220697320746865207a65726f2061646472657373a26469706673582212208e240022cff0d46492fadc1f77b21eeef5baa8b5041ff9e2eb5b9c2f15ef902764736f6c63430006020033",
  "source": "pragma solidity ^0.6.0;\r\n\r\nimport \"@openzeppelin/contracts/GSN/Context.sol\";\r\nimport \"@openzeppelin/contracts/access/Ownable.sol\";\r\nimport \"@openzeppelin/contracts/token/ERC20/ERC20.sol\";\r\nimport \"@openzeppelin/contracts/presets/ERC20PresetMinterPauser.sol\";\r\n\r\n\r\n// Hold KAWAII Tokens\r\n// In charge of managing game\r\ncontract KBRGame is Ownable {\r\n    address oracle;\r\n    IERC20 busd;\r\n    IERC20 link;\r\n    ERC20PresetMinterPauser kawaii;\r\n\r\n    uint public defaultStake;\r\n    uint public minStakeDays;\r\n\r\n    struct Player {\r\n        uint    timeJoined;\r\n        uint    amountStaked;\r\n    }\r\n\r\n    mapping(address => Player) public players;\r\n\r\n    event NewUserStakedAccess(address playerAddress);\r\n    event UserWithdrewStake(address playerAddress);\r\n    event DefaultStakeUpdated(uint newAmount);\r\n\r\n    constructor(\r\n        address _oracle, \r\n        address _busd, \r\n        address _link,\r\n        address _kawaii ) public {\r\n\r\n        oracle  = _oracle;\r\n        busd    = IERC20(_busd);\r\n        link    = IERC20(_link); \r\n        kawaii  = ERC20PresetMinterPauser(_kawaii);\r\n\r\n        defaultStake = 30 * 10**18; // 30 BUSD\r\n        minStakeDays = 30 days;\r\n    }\r\n\r\n    /// Stake to get acess to the game\r\n    /// @dev the minimum required is updated based on the phase of the game relase\r\n    function stakeToPlayBUSD() public payable {\r\n        uint256 allowance = busd.allowance(msg.sender, oracle);\r\n        require(allowance >= defaultStake, \"Check the token allowance\");\r\n        busd.transferFrom(_msgSender(), oracle, defaultStake);\r\n\r\n        Player memory player = Player({ timeJoined: now, amountStaked: allowance });\r\n        players[msg.sender] = player;\r\n        kawaii.mint(msg.sender, 2000 * 10**18); // Mint KAWAII tokens for staking\r\n        emit NewUserStakedAccess(msg.sender);\r\n    }\r\n\r\n    /// Need to check equivalent amount of linke to defaultStake\r\n    function stakeToPlayLINK() public payable {\r\n        uint256 allowance = link.allowance(msg.sender, oracle);\r\n        require(allowance >= defaultStake, \"Check the token allowance\");\r\n        link.transferFrom(_msgSender(), oracle, defaultStake);\r\n\r\n        Player memory player = Player({ timeJoined: now, amountStaked: allowance });\r\n        players[msg.sender] = player;\r\n        kawaii.mint(msg.sender, 2000 * 10**18); // Mint KAWAII tokens for staking\r\n        emit NewUserStakedAccess(msg.sender);\r\n    }\r\n\r\n    ///\r\n    /// @dev \r\n    function withdrawStake() public {\r\n        Player memory player = players[msg.sender];\r\n        require(player.timeJoined >= player.timeJoined + minStakeDays, \"Cannot withdraw yet\");\r\n        busd.transfer(msg.sender, player.amountStaked);\r\n\r\n        emit UserWithdrewStake(msg.sender);\r\n    }\r\n\r\n    function updateDefaultStake(uint _defaultStake) public onlyOwner {\r\n        defaultStake = _defaultStake;\r\n        emit DefaultStakeUpdated(defaultStake);\r\n    }\r\n}",
  "sourcePath": "C:/startup/open-dive/KawaiiBattleRoyaleSwitchBullet_Dapp/contracts/KBRGame.sol",
  "compiler": {
    "name": "solc",
    "version": "0.6.2+commit.bacdbe57.Emscripten.clang"
  },
  "schemaVersion": "3.3.2",
  "updatedAt": "2021-01-16T06:41:26.989Z",
  "devdoc": {
    "methods": {
      "owner()": {
        "details": "Returns the address of the current owner."
      },
      "renounceOwnership()": {
        "details": "Leaves the contract without owner. It will not be possible to call `onlyOwner` functions anymore. Can only be called by the current owner.     * NOTE: Renouncing ownership will leave the contract without an owner, thereby removing any functionality that is only available to the owner."
      },
      "stakeToPlayBUSD()": {
        "details": "the minimum required is updated based on the phase of the game relase"
      },
      "transferOwnership(address)": {
        "details": "Transfers ownership of the contract to a new account (`newOwner`). Can only be called by the current owner."
      }
    }
  },
  "userdoc": {
    "methods": {
      "stakeToPlayBUSD()": {
        "notice": "Stake to get acess to the game"
      },
      "stakeToPlayLINK()": {
        "notice": "Need to check equivalent amount of linke to defaultStake"
      }
    }
  }
}