{
  "contractName": "KBRGameItems",
  "abi": [
    {
      "inputs": [
        {
          "internalType": "address",
          "name": "_governance",
          "type": "address"
        }
      ],
      "stateMutability": "nonpayable",
      "type": "constructor"
    },
    {
      "anonymous": false,
      "inputs": [
        {
          "indexed": true,
          "internalType": "address",
          "name": "account",
          "type": "address"
        },
        {
          "indexed": true,
          "internalType": "address",
          "name": "operator",
          "type": "address"
        },
        {
          "indexed": false,
          "internalType": "bool",
          "name": "approved",
          "type": "bool"
        }
      ],
      "name": "ApprovalForAll",
      "type": "event"
    },
    {
      "anonymous": false,
      "inputs": [
        {
          "indexed": false,
          "internalType": "address",
          "name": "account",
          "type": "address"
        }
      ],
      "name": "Paused",
      "type": "event"
    },
    {
      "anonymous": false,
      "inputs": [
        {
          "indexed": true,
          "internalType": "bytes32",
          "name": "role",
          "type": "bytes32"
        },
        {
          "indexed": true,
          "internalType": "bytes32",
          "name": "previousAdminRole",
          "type": "bytes32"
        },
        {
          "indexed": true,
          "internalType": "bytes32",
          "name": "newAdminRole",
          "type": "bytes32"
        }
      ],
      "name": "RoleAdminChanged",
      "type": "event"
    },
    {
      "anonymous": false,
      "inputs": [
        {
          "indexed": true,
          "internalType": "bytes32",
          "name": "role",
          "type": "bytes32"
        },
        {
          "indexed": true,
          "internalType": "address",
          "name": "account",
          "type": "address"
        },
        {
          "indexed": true,
          "internalType": "address",
          "name": "sender",
          "type": "address"
        }
      ],
      "name": "RoleGranted",
      "type": "event"
    },
    {
      "anonymous": false,
      "inputs": [
        {
          "indexed": true,
          "internalType": "bytes32",
          "name": "role",
          "type": "bytes32"
        },
        {
          "indexed": true,
          "internalType": "address",
          "name": "account",
          "type": "address"
        },
        {
          "indexed": true,
          "internalType": "address",
          "name": "sender",
          "type": "address"
        }
      ],
      "name": "RoleRevoked",
      "type": "event"
    },
    {
      "anonymous": false,
      "inputs": [
        {
          "indexed": true,
          "internalType": "address",
          "name": "operator",
          "type": "address"
        },
        {
          "indexed": true,
          "internalType": "address",
          "name": "from",
          "type": "address"
        },
        {
          "indexed": true,
          "internalType": "address",
          "name": "to",
          "type": "address"
        },
        {
          "indexed": false,
          "internalType": "uint256[]",
          "name": "ids",
          "type": "uint256[]"
        },
        {
          "indexed": false,
          "internalType": "uint256[]",
          "name": "values",
          "type": "uint256[]"
        }
      ],
      "name": "TransferBatch",
      "type": "event"
    },
    {
      "anonymous": false,
      "inputs": [
        {
          "indexed": true,
          "internalType": "address",
          "name": "operator",
          "type": "address"
        },
        {
          "indexed": true,
          "internalType": "address",
          "name": "from",
          "type": "address"
        },
        {
          "indexed": true,
          "internalType": "address",
          "name": "to",
          "type": "address"
        },
        {
          "indexed": false,
          "internalType": "uint256",
          "name": "id",
          "type": "uint256"
        },
        {
          "indexed": false,
          "internalType": "uint256",
          "name": "value",
          "type": "uint256"
        }
      ],
      "name": "TransferSingle",
      "type": "event"
    },
    {
      "anonymous": false,
      "inputs": [
        {
          "indexed": false,
          "internalType": "string",
          "name": "value",
          "type": "string"
        },
        {
          "indexed": true,
          "internalType": "uint256",
          "name": "id",
          "type": "uint256"
        }
      ],
      "name": "URI",
      "type": "event"
    },
    {
      "anonymous": false,
      "inputs": [
        {
          "indexed": false,
          "internalType": "address",
          "name": "account",
          "type": "address"
        }
      ],
      "name": "Unpaused",
      "type": "event"
    },
    {
      "inputs": [],
      "name": "DEFAULT_ADMIN_ROLE",
      "outputs": [
        {
          "internalType": "bytes32",
          "name": "",
          "type": "bytes32"
        }
      ],
      "stateMutability": "view",
      "type": "function",
      "constant": true
    },
    {
      "inputs": [],
      "name": "JETPACK",
      "outputs": [
        {
          "internalType": "uint256",
          "name": "",
          "type": "uint256"
        }
      ],
      "stateMutability": "view",
      "type": "function",
      "constant": true
    },
    {
      "inputs": [],
      "name": "KAWAII_CAPPED",
      "outputs": [
        {
          "internalType": "uint256",
          "name": "",
          "type": "uint256"
        }
      ],
      "stateMutability": "view",
      "type": "function",
      "constant": true
    },
    {
      "inputs": [],
      "name": "LOVE_GUN",
      "outputs": [
        {
          "internalType": "uint256",
          "name": "",
          "type": "uint256"
        }
      ],
      "stateMutability": "view",
      "type": "function",
      "constant": true
    },
    {
      "inputs": [],
      "name": "MINTER_ROLE",
      "outputs": [
        {
          "internalType": "bytes32",
          "name": "",
          "type": "bytes32"
        }
      ],
      "stateMutability": "view",
      "type": "function",
      "constant": true
    },
    {
      "inputs": [],
      "name": "PAUSER_ROLE",
      "outputs": [
        {
          "internalType": "bytes32",
          "name": "",
          "type": "bytes32"
        }
      ],
      "stateMutability": "view",
      "type": "function",
      "constant": true
    },
    {
      "inputs": [],
      "name": "SHIELD",
      "outputs": [
        {
          "internalType": "uint256",
          "name": "",
          "type": "uint256"
        }
      ],
      "stateMutability": "view",
      "type": "function",
      "constant": true
    },
    {
      "inputs": [],
      "name": "SUPER_BOOTS",
      "outputs": [
        {
          "internalType": "uint256",
          "name": "",
          "type": "uint256"
        }
      ],
      "stateMutability": "view",
      "type": "function",
      "constant": true
    },
    {
      "inputs": [],
      "name": "SWORD",
      "outputs": [
        {
          "internalType": "uint256",
          "name": "",
          "type": "uint256"
        }
      ],
      "stateMutability": "view",
      "type": "function",
      "constant": true
    },
    {
      "inputs": [],
      "name": "THORS_HAMMER",
      "outputs": [
        {
          "internalType": "uint256",
          "name": "",
          "type": "uint256"
        }
      ],
      "stateMutability": "view",
      "type": "function",
      "constant": true
    },
    {
      "inputs": [],
      "name": "TIMEWARP_CAPE",
      "outputs": [
        {
          "internalType": "uint256",
          "name": "",
          "type": "uint256"
        }
      ],
      "stateMutability": "view",
      "type": "function",
      "constant": true
    },
    {
      "inputs": [
        {
          "internalType": "address",
          "name": "account",
          "type": "address"
        },
        {
          "internalType": "uint256",
          "name": "id",
          "type": "uint256"
        }
      ],
      "name": "balanceOf",
      "outputs": [
        {
          "internalType": "uint256",
          "name": "",
          "type": "uint256"
        }
      ],
      "stateMutability": "view",
      "type": "function",
      "constant": true
    },
    {
      "inputs": [
        {
          "internalType": "address[]",
          "name": "accounts",
          "type": "address[]"
        },
        {
          "internalType": "uint256[]",
          "name": "ids",
          "type": "uint256[]"
        }
      ],
      "name": "balanceOfBatch",
      "outputs": [
        {
          "internalType": "uint256[]",
          "name": "",
          "type": "uint256[]"
        }
      ],
      "stateMutability": "view",
      "type": "function",
      "constant": true
    },
    {
      "inputs": [
        {
          "internalType": "address",
          "name": "account",
          "type": "address"
        },
        {
          "internalType": "uint256",
          "name": "id",
          "type": "uint256"
        },
        {
          "internalType": "uint256",
          "name": "value",
          "type": "uint256"
        }
      ],
      "name": "burn",
      "outputs": [],
      "stateMutability": "nonpayable",
      "type": "function"
    },
    {
      "inputs": [
        {
          "internalType": "address",
          "name": "account",
          "type": "address"
        },
        {
          "internalType": "uint256[]",
          "name": "ids",
          "type": "uint256[]"
        },
        {
          "internalType": "uint256[]",
          "name": "values",
          "type": "uint256[]"
        }
      ],
      "name": "burnBatch",
      "outputs": [],
      "stateMutability": "nonpayable",
      "type": "function"
    },
    {
      "inputs": [
        {
          "internalType": "bytes32",
          "name": "role",
          "type": "bytes32"
        }
      ],
      "name": "getRoleAdmin",
      "outputs": [
        {
          "internalType": "bytes32",
          "name": "",
          "type": "bytes32"
        }
      ],
      "stateMutability": "view",
      "type": "function",
      "constant": true
    },
    {
      "inputs": [
        {
          "internalType": "bytes32",
          "name": "role",
          "type": "bytes32"
        },
        {
          "internalType": "uint256",
          "name": "index",
          "type": "uint256"
        }
      ],
      "name": "getRoleMember",
      "outputs": [
        {
          "internalType": "address",
          "name": "",
          "type": "address"
        }
      ],
      "stateMutability": "view",
      "type": "function",
      "constant": true
    },
    {
      "inputs": [
        {
          "internalType": "bytes32",
          "name": "role",
          "type": "bytes32"
        }
      ],
      "name": "getRoleMemberCount",
      "outputs": [
        {
          "internalType": "uint256",
          "name": "",
          "type": "uint256"
        }
      ],
      "stateMutability": "view",
      "type": "function",
      "constant": true
    },
    {
      "inputs": [],
      "name": "governance",
      "outputs": [
        {
          "internalType": "address",
          "name": "",
          "type": "address"
        }
      ],
      "stateMutability": "view",
      "type": "function",
      "constant": true
    },
    {
      "inputs": [
        {
          "internalType": "bytes32",
          "name": "role",
          "type": "bytes32"
        },
        {
          "internalType": "address",
          "name": "account",
          "type": "address"
        }
      ],
      "name": "grantRole",
      "outputs": [],
      "stateMutability": "nonpayable",
      "type": "function"
    },
    {
      "inputs": [
        {
          "internalType": "bytes32",
          "name": "role",
          "type": "bytes32"
        },
        {
          "internalType": "address",
          "name": "account",
          "type": "address"
        }
      ],
      "name": "hasRole",
      "outputs": [
        {
          "internalType": "bool",
          "name": "",
          "type": "bool"
        }
      ],
      "stateMutability": "view",
      "type": "function",
      "constant": true
    },
    {
      "inputs": [
        {
          "internalType": "address",
          "name": "account",
          "type": "address"
        },
        {
          "internalType": "address",
          "name": "operator",
          "type": "address"
        }
      ],
      "name": "isApprovedForAll",
      "outputs": [
        {
          "internalType": "bool",
          "name": "",
          "type": "bool"
        }
      ],
      "stateMutability": "view",
      "type": "function",
      "constant": true
    },
    {
      "inputs": [
        {
          "internalType": "address",
          "name": "to",
          "type": "address"
        },
        {
          "internalType": "uint256",
          "name": "id",
          "type": "uint256"
        },
        {
          "internalType": "uint256",
          "name": "amount",
          "type": "uint256"
        },
        {
          "internalType": "bytes",
          "name": "data",
          "type": "bytes"
        }
      ],
      "name": "mint",
      "outputs": [],
      "stateMutability": "nonpayable",
      "type": "function"
    },
    {
      "inputs": [
        {
          "internalType": "address",
          "name": "to",
          "type": "address"
        },
        {
          "internalType": "uint256[]",
          "name": "ids",
          "type": "uint256[]"
        },
        {
          "internalType": "uint256[]",
          "name": "amounts",
          "type": "uint256[]"
        },
        {
          "internalType": "bytes",
          "name": "data",
          "type": "bytes"
        }
      ],
      "name": "mintBatch",
      "outputs": [],
      "stateMutability": "nonpayable",
      "type": "function"
    },
    {
      "inputs": [],
      "name": "pause",
      "outputs": [],
      "stateMutability": "nonpayable",
      "type": "function"
    },
    {
      "inputs": [],
      "name": "paused",
      "outputs": [
        {
          "internalType": "bool",
          "name": "",
          "type": "bool"
        }
      ],
      "stateMutability": "view",
      "type": "function",
      "constant": true
    },
    {
      "inputs": [
        {
          "internalType": "bytes32",
          "name": "role",
          "type": "bytes32"
        },
        {
          "internalType": "address",
          "name": "account",
          "type": "address"
        }
      ],
      "name": "renounceRole",
      "outputs": [],
      "stateMutability": "nonpayable",
      "type": "function"
    },
    {
      "inputs": [
        {
          "internalType": "bytes32",
          "name": "role",
          "type": "bytes32"
        },
        {
          "internalType": "address",
          "name": "account",
          "type": "address"
        }
      ],
      "name": "revokeRole",
      "outputs": [],
      "stateMutability": "nonpayable",
      "type": "function"
    },
    {
      "inputs": [
        {
          "internalType": "address",
          "name": "from",
          "type": "address"
        },
        {
          "internalType": "address",
          "name": "to",
          "type": "address"
        },
        {
          "internalType": "uint256[]",
          "name": "ids",
          "type": "uint256[]"
        },
        {
          "internalType": "uint256[]",
          "name": "amounts",
          "type": "uint256[]"
        },
        {
          "internalType": "bytes",
          "name": "data",
          "type": "bytes"
        }
      ],
      "name": "safeBatchTransferFrom",
      "outputs": [],
      "stateMutability": "nonpayable",
      "type": "function"
    },
    {
      "inputs": [
        {
          "internalType": "address",
          "name": "from",
          "type": "address"
        },
        {
          "internalType": "address",
          "name": "to",
          "type": "address"
        },
        {
          "internalType": "uint256",
          "name": "id",
          "type": "uint256"
        },
        {
          "internalType": "uint256",
          "name": "amount",
          "type": "uint256"
        },
        {
          "internalType": "bytes",
          "name": "data",
          "type": "bytes"
        }
      ],
      "name": "safeTransferFrom",
      "outputs": [],
      "stateMutability": "nonpayable",
      "type": "function"
    },
    {
      "inputs": [
        {
          "internalType": "address",
          "name": "operator",
          "type": "address"
        },
        {
          "internalType": "bool",
          "name": "approved",
          "type": "bool"
        }
      ],
      "name": "setApprovalForAll",
      "outputs": [],
      "stateMutability": "nonpayable",
      "type": "function"
    },
    {
      "inputs": [
        {
          "internalType": "bytes4",
          "name": "interfaceId",
          "type": "bytes4"
        }
      ],
      "name": "supportsInterface",
      "outputs": [
        {
          "internalType": "bool",
          "name": "",
          "type": "bool"
        }
      ],
      "stateMutability": "view",
      "type": "function",
      "constant": true
    },
    {
      "inputs": [],
      "name": "unpause",
      "outputs": [],
      "stateMutability": "nonpayable",
      "type": "function"
    },
    {
      "inputs": [
        {
          "internalType": "uint256",
          "name": "",
          "type": "uint256"
        }
      ],
      "name": "uri",
      "outputs": [
        {
          "internalType": "string",
          "name": "",
          "type": "string"
        }
      ],
      "stateMutability": "view",
      "type": "function",
      "constant": true
    },
    {
      "inputs": [
        {
          "internalType": "uint256",
          "name": "initialSupply",
          "type": "uint256"
        }
      ],
      "name": "createItem",
      "outputs": [],
      "stateMutability": "nonpayable",
      "type": "function"
    },
    {
      "inputs": [
        {
          "internalType": "address",
          "name": "to",
          "type": "address"
        },
        {
          "internalType": "uint256[]",
          "name": "ids",
          "type": "uint256[]"
        },
        {
          "internalType": "uint256[]",
          "name": "amounts",
          "type": "uint256[]"
        },
        {
          "internalType": "bytes",
          "name": "data",
          "type": "bytes"
        }
      ],
      "name": "mintBatchItems",
      "outputs": [],
      "stateMutability": "nonpayable",
      "type": "function"
    }
  ],
  "bytecode": "0x60806040523480156200001157600080fd5b506040516200502c3803806200502c833981810160405260208110156200003757600080fd5b81019080805190602001909291905050506040518060600160405280602781526020016200500560279139806200007b6301ffc9a760e01b620001f160201b60201c565b6200008c81620002fa60201b60201c565b620000a463d9b67a2660e01b620001f160201b60201c565b620000bc630e89341c60e01b620001f160201b60201c565b506000600560006101000a81548160ff021916908315150217905550620000fc6000801b620000f06200031660201b60201c565b6200031e60201b60201c565b6200015260405180807f4d494e5445525f524f4c45000000000000000000000000000000000000000000815250600b0190506040518091039020620001466200031660201b60201c565b6200031e60201b60201c565b620001a860405180807f5041555345525f524f4c45000000000000000000000000000000000000000000815250600b01905060405180910390206200019c6200031660201b60201c565b6200031e60201b60201c565b5080600760006101000a81548173ffffffffffffffffffffffffffffffffffffffff021916908373ffffffffffffffffffffffffffffffffffffffff160217905550506200055b565b63ffffffff60e01b817bffffffffffffffffffffffffffffffffffffffffffffffffffffffff191614156200028e576040517f08c379a000000000000000000000000000000000000000000000000000000000815260040180806020018281038252601c8152602001807f4552433136353a20696e76616c696420696e746572666163652069640000000081525060200191505060405180910390fd5b6001806000837bffffffffffffffffffffffffffffffffffffffffffffffffffffffff19167bffffffffffffffffffffffffffffffffffffffffffffffffffffffff1916815260200190815260200160002060006101000a81548160ff02191690831515021790555050565b806004908051906020019062000312929190620004ac565b5050565b600033905090565b6200033082826200033460201b60201c565b5050565b6200036281600080858152602001908152602001600020600001620003d760201b620044211790919060201c565b15620003d357620003786200031660201b60201c565b73ffffffffffffffffffffffffffffffffffffffff168173ffffffffffffffffffffffffffffffffffffffff16837f2f8788117e7eff1d82e926ec794901d17c78024a50270940304540a733656f0d60405160405180910390a45b5050565b600062000407836000018373ffffffffffffffffffffffffffffffffffffffff1660001b6200040f60201b60201c565b905092915050565b60006200042383836200048960201b60201c565b6200047e57826000018290806001815401808255809150506001900390600052602060002001600090919091909150558260000180549050836001016000848152602001908152602001600020819055506001905062000483565b600090505b92915050565b600080836001016000848152602001908152602001600020541415905092915050565b828054600181600116156101000203166002900490600052602060002090601f016020900481019282601f10620004ef57805160ff191683800117855562000520565b8280016001018555821562000520579182015b828111156200051f57825182559160200191906001019062000502565b5b5090506200052f919062000533565b5090565b6200055891905b80821115620005545760008160009055506001016200053a565b5090565b90565b614a9a806200056b6000396000f3fe608060405234801561001057600080fd5b506004361061021b5760003560e01c8063731133e911610125578063d5391393116100ad578063e63ab1e91161007c578063e63ab1e91461120b578063e985e9c514611229578063f242432a146112a5578063f5298aca146113b4578063fb0ddbee1461140c5761021b565b8063d539139314611153578063d547741f14611171578063d562e204146111bf578063d7a5d5d3146111dd5761021b565b80639010d07c116100f45780639010d07c14610fc557806391d148541461103d578063a217fddf146110a3578063a22cb465146110c1578063ca15c873146111115761021b565b8063731133e914610cab5780637376b1aa14610d9a578063823cb86414610f9d5780638456cb5914610fbb5761021b565b806336568abe116101a857806357cfb2f51161017757806357cfb2f514610a975780635aa6e67514610ab55780635b2725ed14610aff5780635c975abb14610b1d5780636b20c45414610b3f5761021b565b806336568abe146108805780633f4ba83a146108ce57806344317b1e146108d85780634e1273f4146108f65761021b565b80631f7fdffa116101ef5780631f7fdffa146103ac578063248a9ca3146105af5780632e70ddae146105f15780632eb2c2d61461060f5780632f2ff15d146108325761021b565b8062fdd58e1461022057806301ffc9a7146102825780630e89341c146102e757806313dc989f1461038e575b600080fd5b61026c6004803603604081101561023657600080fd5b81019080803573ffffffffffffffffffffffffffffffffffffffff1690602001909291908035906020019092919050505061142a565b6040518082815260200191505060405180910390f35b6102cd6004803603602081101561029857600080fd5b8101908080357bffffffffffffffffffffffffffffffffffffffffffffffffffffffff1916906020019092919050505061150a565b604051808215151515815260200191505060405180910390f35b610313600480360360208110156102fd57600080fd5b8101908080359060200190929190505050611572565b6040518080602001828103825283818151815260200191508051906020019080838360005b83811015610353578082015181840152602081019050610338565b50505050905090810190601f1680156103805780820380516001836020036101000a031916815260200191505b509250505060405180910390f35b610396611616565b6040518082815260200191505060405180910390f35b6105ad600480360360808110156103c257600080fd5b81019080803573ffffffffffffffffffffffffffffffffffffffff169060200190929190803590602001906401000000008111156103ff57600080fd5b82018360208201111561041157600080fd5b8035906020019184602083028401116401000000008311171561043357600080fd5b919080806020026020016040519081016040528093929190818152602001838360200280828437600081840152601f19601f8201169050808301925050505050505091929192908035906020019064010000000081111561049357600080fd5b8201836020820111156104a557600080fd5b803590602001918460208302840111640100000000831117156104c757600080fd5b919080806020026020016040519081016040528093929190818152602001838360200280828437600081840152601f19601f8201169050808301925050505050505091929192908035906020019064010000000081111561052757600080fd5b82018360208201111561053957600080fd5b8035906020019184600183028401116401000000008311171561055b57600080fd5b91908080601f016020809104026020016040519081016040528093929190818152602001838380828437600081840152601f19601f82011690508083019250505050505050919291929050505061161b565b005b6105db600480360360208110156105c557600080fd5b81019080803590602001909291905050506116c8565b6040518082815260200191505060405180910390f35b6105f96116e7565b6040518082815260200191505060405180910390f35b610830600480360360a081101561062557600080fd5b81019080803573ffffffffffffffffffffffffffffffffffffffff169060200190929190803573ffffffffffffffffffffffffffffffffffffffff1690602001909291908035906020019064010000000081111561068257600080fd5b82018360208201111561069457600080fd5b803590602001918460208302840111640100000000831117156106b657600080fd5b919080806020026020016040519081016040528093929190818152602001838360200280828437600081840152601f19601f8201169050808301925050505050505091929192908035906020019064010000000081111561071657600080fd5b82018360208201111561072857600080fd5b8035906020019184602083028401116401000000008311171561074a57600080fd5b919080806020026020016040519081016040528093929190818152602001838360200280828437600081840152601f19601f820116905080830192505050505050509192919290803590602001906401000000008111156107aa57600080fd5b8201836020820111156107bc57600080fd5b803590602001918460018302840111640100000000831117156107de57600080fd5b91908080601f016020809104026020016040519081016040528093929190818152602001838380828437600081840152601f19601f8201169050808301925050505050505091929192905050506116ec565b005b61087e6004803603604081101561084857600080fd5b8101908080359060200190929190803573ffffffffffffffffffffffffffffffffffffffff169060200190929190505050611b7a565b005b6108cc6004803603604081101561089657600080fd5b8101908080359060200190929190803573ffffffffffffffffffffffffffffffffffffffff169060200190929190505050611c03565b005b6108d6611c9c565b005b6108e0611d41565b6040518082815260200191505060405180910390f35b610a406004803603604081101561090c57600080fd5b810190808035906020019064010000000081111561092957600080fd5b82018360208201111561093b57600080fd5b8035906020019184602083028401116401000000008311171561095d57600080fd5b919080806020026020016040519081016040528093929190818152602001838360200280828437600081840152601f19601f820116905080830192505050505050509192919290803590602001906401000000008111156109bd57600080fd5b8201836020820111156109cf57600080fd5b803590602001918460208302840111640100000000831117156109f157600080fd5b919080806020026020016040519081016040528093929190818152602001838360200280828437600081840152601f19601f820116905080830192505050505050509192919290505050611d46565b6040518080602001828103825283818151815260200191508051906020019060200280838360005b83811015610a83578082015181840152602081019050610a68565b505050509050019250505060405180910390f35b610a9f611f24565b6040518082815260200191505060405180910390f35b610abd611f29565b604051808273ffffffffffffffffffffffffffffffffffffffff1673ffffffffffffffffffffffffffffffffffffffff16815260200191505060405180910390f35b610b07611f4f565b6040518082815260200191505060405180910390f35b610b25611f54565b604051808215151515815260200191505060405180910390f35b610ca960048036036060811015610b5557600080fd5b81019080803573ffffffffffffffffffffffffffffffffffffffff16906020019092919080359060200190640100000000811115610b9257600080fd5b820183602082011115610ba457600080fd5b80359060200191846020830284011164010000000083111715610bc657600080fd5b919080806020026020016040519081016040528093929190818152602001838360200280828437600081840152601f19601f82011690508083019250505050505050919291929080359060200190640100000000811115610c2657600080fd5b820183602082011115610c3857600080fd5b80359060200191846020830284011164010000000083111715610c5a57600080fd5b919080806020026020016040519081016040528093929190818152602001838360200280828437600081840152601f19601f820116905080830192505050505050509192919290505050611f6b565b005b610d9860048036036080811015610cc157600080fd5b81019080803573ffffffffffffffffffffffffffffffffffffffff169060200190929190803590602001909291908035906020019092919080359060200190640100000000811115610d1257600080fd5b820183602082011115610d2457600080fd5b80359060200191846001830284011164010000000083111715610d4657600080fd5b91908080601f016020809104026020016040519081016040528093929190818152602001838380828437600081840152601f19601f82011690508083019250505050505050919291929050505061201e565b005b610f9b60048036036080811015610db057600080fd5b81019080803573ffffffffffffffffffffffffffffffffffffffff16906020019092919080359060200190640100000000811115610ded57600080fd5b820183602082011115610dff57600080fd5b80359060200191846020830284011164010000000083111715610e2157600080fd5b919080806020026020016040519081016040528093929190818152602001838360200280828437600081840152601f19601f82011690508083019250505050505050919291929080359060200190640100000000811115610e8157600080fd5b820183602082011115610e9357600080fd5b80359060200191846020830284011164010000000083111715610eb557600080fd5b919080806020026020016040519081016040528093929190818152602001838360200280828437600081840152601f19601f82011690508083019250505050505050919291929080359060200190640100000000811115610f1557600080fd5b820183602082011115610f2757600080fd5b80359060200191846001830284011164010000000083111715610f4957600080fd5b91908080601f016020809104026020016040519081016040528093929190818152602001838380828437600081840152601f19601f8201169050808301925050505050505091929192905050506120cb565b005b610fa56121a0565b6040518082815260200191505060405180910390f35b610fc36121a5565b005b610ffb60048036036040811015610fdb57600080fd5b81019080803590602001909291908035906020019092919050505061224a565b604051808273ffffffffffffffffffffffffffffffffffffffff1673ffffffffffffffffffffffffffffffffffffffff16815260200191505060405180910390f35b6110896004803603604081101561105357600080fd5b8101908080359060200190929190803573ffffffffffffffffffffffffffffffffffffffff16906020019092919050505061227b565b604051808215151515815260200191505060405180910390f35b6110ab6122ac565b6040518082815260200191505060405180910390f35b61110f600480360360408110156110d757600080fd5b81019080803573ffffffffffffffffffffffffffffffffffffffff1690602001909291908035151590602001909291905050506122b3565b005b61113d6004803603602081101561112757600080fd5b810190808035906020019092919050505061244e565b6040518082815260200191505060405180910390f35b61115b612474565b6040518082815260200191505060405180910390f35b6111bd6004803603604081101561118757600080fd5b8101908080359060200190929190803573ffffffffffffffffffffffffffffffffffffffff1690602001909291905050506124ad565b005b6111c7612536565b6040518082815260200191505060405180910390f35b611209600480360360208110156111f357600080fd5b810190808035906020019092919050505061253b565b005b611213612635565b6040518082815260200191505060405180910390f35b61128b6004803603604081101561123f57600080fd5b81019080803573ffffffffffffffffffffffffffffffffffffffff169060200190929190803573ffffffffffffffffffffffffffffffffffffffff16906020019092919050505061266e565b604051808215151515815260200191505060405180910390f35b6113b2600480360360a08110156112bb57600080fd5b81019080803573ffffffffffffffffffffffffffffffffffffffff169060200190929190803573ffffffffffffffffffffffffffffffffffffffff16906020019092919080359060200190929190803590602001909291908035906020019064010000000081111561132c57600080fd5b82018360208201111561133e57600080fd5b8035906020019184600183028401116401000000008311171561136057600080fd5b91908080601f016020809104026020016040519081016040528093929190818152602001838380828437600081840152601f19601f820116905080830192505050505050509192919290505050612702565b005b61140a600480360360608110156113ca57600080fd5b81019080803573ffffffffffffffffffffffffffffffffffffffff1690602001909291908035906020019092919080359060200190929190505050612a77565b005b611414612b2a565b6040518082815260200191505060405180910390f35b60008073ffffffffffffffffffffffffffffffffffffffff168373ffffffffffffffffffffffffffffffffffffffff1614156114b1576040517f08c379a000000000000000000000000000000000000000000000000000000000815260040180806020018281038252602b815260200180614746602b913960400191505060405180910390fd5b6002600083815260200190815260200160002060008473ffffffffffffffffffffffffffffffffffffffff1673ffffffffffffffffffffffffffffffffffffffff16815260200190815260200160002054905092915050565b600060016000837bffffffffffffffffffffffffffffffffffffffffffffffffffffffff19167bffffffffffffffffffffffffffffffffffffffffffffffffffffffff1916815260200190815260200160002060009054906101000a900460ff169050919050565b606060048054600181600116156101000203166002900480601f01602080910402602001604051908101604052809291908181526020018280546001816001161561010002031660029004801561160a5780601f106115df5761010080835404028352916020019161160a565b820191906000526020600020905b8154815290600101906020018083116115ed57829003601f168201915b50505050509050919050565b600581565b61166160405180807f4d494e5445525f524f4c45000000000000000000000000000000000000000000815250600b019050604051809103902061165c612b2f565b61227b565b6116b6576040517f08c379a00000000000000000000000000000000000000000000000000000000081526004018080602001828103825260388152602001806148c56038913960400191505060405180910390fd5b6116c284848484612b37565b50505050565b6000806000838152602001908152602001600020600201549050919050565b600081565b8151835114611746576040517f08c379a00000000000000000000000000000000000000000000000000000000081526004018080602001828103825260288152602001806149ed6028913960400191505060405180910390fd5b600073ffffffffffffffffffffffffffffffffffffffff168473ffffffffffffffffffffffffffffffffffffffff1614156117cc576040517f08c379a000000000000000000000000000000000000000000000000000000000815260040180806020018281038252602581526020018061484b6025913960400191505060405180910390fd5b6117d4612b2f565b73ffffffffffffffffffffffffffffffffffffffff168573ffffffffffffffffffffffffffffffffffffffff16148061181a575061181985611814612b2f565b61266e565b5b61186f576040517f08c379a00000000000000000000000000000000000000000000000000000000081526004018080602001828103825260328152602001806148706032913960400191505060405180910390fd5b6000611879612b2f565b9050611889818787878787612e5c565b60008090505b8451811015611a5d5760008582815181106118a657fe5b6020026020010151905060008583815181106118be57fe5b60200260200101519050611945816040518060600160405280602a81526020016148fd602a91396002600086815260200190815260200160002060008d73ffffffffffffffffffffffffffffffffffffffff1673ffffffffffffffffffffffffffffffffffffffff16815260200190815260200160002054612e729092919063ffffffff16565b6002600084815260200190815260200160002060008b73ffffffffffffffffffffffffffffffffffffffff1673ffffffffffffffffffffffffffffffffffffffff168152602001908152602001600020819055506119fc816002600085815260200190815260200160002060008b73ffffffffffffffffffffffffffffffffffffffff1673ffffffffffffffffffffffffffffffffffffffff16815260200190815260200160002054612f3290919063ffffffff16565b6002600084815260200190815260200160002060008a73ffffffffffffffffffffffffffffffffffffffff1673ffffffffffffffffffffffffffffffffffffffff16815260200190815260200160002081905550505080600101905061188f565b508473ffffffffffffffffffffffffffffffffffffffff168673ffffffffffffffffffffffffffffffffffffffff168273ffffffffffffffffffffffffffffffffffffffff167f4a39dc06d4c0dbc64b70af90fd698a233a518aa5d07e595d983b8c0526c8f7fb8787604051808060200180602001838103835285818151815260200191508051906020019060200280838360005b83811015611b0d578082015181840152602081019050611af2565b50505050905001838103825284818151815260200191508051906020019060200280838360005b83811015611b4f578082015181840152602081019050611b34565b5050505090500194505050505060405180910390a4611b72818787878787612fba565b505050505050565b611ba060008084815260200190815260200160002060020154611b9b612b2f565b61227b565b611bf5576040517f08c379a000000000000000000000000000000000000000000000000000000000815260040180806020018281038252602f815260200180614717602f913960400191505060405180910390fd5b611bff8282613432565b5050565b611c0b612b2f565b73ffffffffffffffffffffffffffffffffffffffff168173ffffffffffffffffffffffffffffffffffffffff1614611c8e576040517f08c379a000000000000000000000000000000000000000000000000000000000815260040180806020018281038252602f815260200180614a36602f913960400191505060405180910390fd5b611c9882826134c5565b5050565b611ce260405180807f5041555345525f524f4c45000000000000000000000000000000000000000000815250600b0190506040518091039020611cdd612b2f565b61227b565b611d37576040517f08c379a000000000000000000000000000000000000000000000000000000000815260040180806020018281038252603b815260200180614927603b913960400191505060405180910390fd5b611d3f613558565b565b600781565b60608151835114611da2576040517f08c379a00000000000000000000000000000000000000000000000000000000081526004018080602001828103825260298152602001806149c46029913960400191505060405180910390fd5b60608351604051908082528060200260200182016040528015611dd45781602001602082028038833980820191505090505b50905060008090505b8451811015611f1957600073ffffffffffffffffffffffffffffffffffffffff16858281518110611e0a57fe5b602002602001015173ffffffffffffffffffffffffffffffffffffffff161415611e7f576040517f08c379a00000000000000000000000000000000000000000000000000000000081526004018080602001828103825260318152602001806147716031913960400191505060405180910390fd5b60026000858381518110611e8f57fe5b602002602001015181526020019081526020016000206000868381518110611eb357fe5b602002602001015173ffffffffffffffffffffffffffffffffffffffff1673ffffffffffffffffffffffffffffffffffffffff16815260200190815260200160002054828281518110611f0257fe5b602002602001018181525050806001019050611ddd565b508091505092915050565b600381565b600760009054906101000a900473ffffffffffffffffffffffffffffffffffffffff1681565b600681565b6000600560009054906101000a900460ff16905090565b611f73612b2f565b73ffffffffffffffffffffffffffffffffffffffff168373ffffffffffffffffffffffffffffffffffffffff161480611fb95750611fb883611fb3612b2f565b61266e565b5b61200e576040517f08c379a00000000000000000000000000000000000000000000000000000000081526004018080602001828103825260298152602001806147f26029913960400191505060405180910390fd5b612019838383613661565b505050565b61206460405180807f4d494e5445525f524f4c45000000000000000000000000000000000000000000815250600b019050604051809103902061205f612b2f565b61227b565b6120b9576040517f08c379a00000000000000000000000000000000000000000000000000000000081526004018080602001828103825260388152602001806148c56038913960400191505060405180910390fd5b6120c58484848461399f565b50505050565b600760009054906101000a900473ffffffffffffffffffffffffffffffffffffffff1673ffffffffffffffffffffffffffffffffffffffff163373ffffffffffffffffffffffffffffffffffffffff161461218e576040517f08c379a000000000000000000000000000000000000000000000000000000000815260040180806020018281038252601d8152602001807f4f6e6c7920676f7665726e616e63652063616e2063616c6c207468697300000081525060200191505060405180910390fd5b61219a84848484612b37565b50505050565b600181565b6121eb60405180807f5041555345525f524f4c45000000000000000000000000000000000000000000815250600b01905060405180910390206121e6612b2f565b61227b565b612240576040517f08c379a00000000000000000000000000000000000000000000000000000000081526004018080602001828103825260398152602001806149626039913960400191505060405180910390fd5b612248613ba2565b565b600061227382600080868152602001908152602001600020600001613cac90919063ffffffff16565b905092915050565b60006122a482600080868152602001908152602001600020600001613cc690919063ffffffff16565b905092915050565b6000801b81565b8173ffffffffffffffffffffffffffffffffffffffff166122d2612b2f565b73ffffffffffffffffffffffffffffffffffffffff16141561233f576040517f08c379a000000000000000000000000000000000000000000000000000000000815260040180806020018281038252602981526020018061499b6029913960400191505060405180910390fd5b806003600061234c612b2f565b73ffffffffffffffffffffffffffffffffffffffff1673ffffffffffffffffffffffffffffffffffffffff16815260200190815260200160002060008473ffffffffffffffffffffffffffffffffffffffff1673ffffffffffffffffffffffffffffffffffffffff16815260200190815260200160002060006101000a81548160ff0219169083151502179055508173ffffffffffffffffffffffffffffffffffffffff166123f9612b2f565b73ffffffffffffffffffffffffffffffffffffffff167f17307eab39ab6107e8899845ad3d59bd9653f200f220920489ca2b5937696c3183604051808215151515815260200191505060405180910390a35050565b600061246d600080848152602001908152602001600020600001613cf6565b9050919050565b60405180807f4d494e5445525f524f4c45000000000000000000000000000000000000000000815250600b019050604051809103902081565b6124d3600080848152602001908152602001600020600201546124ce612b2f565b61227b565b612528576040517f08c379a000000000000000000000000000000000000000000000000000000000815260040180806020018281038252603081526020018061481b6030913960400191505060405180910390fd5b61253282826134c5565b5050565b600481565b600760009054906101000a900473ffffffffffffffffffffffffffffffffffffffff1673ffffffffffffffffffffffffffffffffffffffff163373ffffffffffffffffffffffffffffffffffffffff16146125fe576040517f08c379a000000000000000000000000000000000000000000000000000000000815260040180806020018281038252601d8152602001807f4f6e6c7920676f7665726e616e63652063616e2063616c6c207468697300000081525060200191505060405180910390fd5b6126086006613d0b565b60006126146006613d21565b90506126313082846040518060200160405280600081525061399f565b5050565b60405180807f5041555345525f524f4c45000000000000000000000000000000000000000000815250600b019050604051809103902081565b6000600360008473ffffffffffffffffffffffffffffffffffffffff1673ffffffffffffffffffffffffffffffffffffffff16815260200190815260200160002060008373ffffffffffffffffffffffffffffffffffffffff1673ffffffffffffffffffffffffffffffffffffffff16815260200190815260200160002060009054906101000a900460ff16905092915050565b600073ffffffffffffffffffffffffffffffffffffffff168473ffffffffffffffffffffffffffffffffffffffff161415612788576040517f08c379a000000000000000000000000000000000000000000000000000000000815260040180806020018281038252602581526020018061484b6025913960400191505060405180910390fd5b612790612b2f565b73ffffffffffffffffffffffffffffffffffffffff168573ffffffffffffffffffffffffffffffffffffffff1614806127d657506127d5856127d0612b2f565b61266e565b5b61282b576040517f08c379a00000000000000000000000000000000000000000000000000000000081526004018080602001828103825260298152602001806147f26029913960400191505060405180910390fd5b6000612835612b2f565b905061285581878761284688613d2f565b61284f88613d2f565b87612e5c565b6128d2836040518060600160405280602a81526020016148fd602a91396002600088815260200190815260200160002060008a73ffffffffffffffffffffffffffffffffffffffff1673ffffffffffffffffffffffffffffffffffffffff16815260200190815260200160002054612e729092919063ffffffff16565b6002600086815260200190815260200160002060008873ffffffffffffffffffffffffffffffffffffffff1673ffffffffffffffffffffffffffffffffffffffff16815260200190815260200160002081905550612989836002600087815260200190815260200160002060008873ffffffffffffffffffffffffffffffffffffffff1673ffffffffffffffffffffffffffffffffffffffff16815260200190815260200160002054612f3290919063ffffffff16565b6002600086815260200190815260200160002060008773ffffffffffffffffffffffffffffffffffffffff1673ffffffffffffffffffffffffffffffffffffffff168152602001908152602001600020819055508473ffffffffffffffffffffffffffffffffffffffff168673ffffffffffffffffffffffffffffffffffffffff168273ffffffffffffffffffffffffffffffffffffffff167fc3d58168c5ae7397731d063d5bbf3d657854427343f4c083240f7aacaa2d0f628787604051808381526020018281526020019250505060405180910390a4612a6f818787878787613d88565b505050505050565b612a7f612b2f565b73ffffffffffffffffffffffffffffffffffffffff168373ffffffffffffffffffffffffffffffffffffffff161480612ac55750612ac483612abf612b2f565b61266e565b5b612b1a576040517f08c379a00000000000000000000000000000000000000000000000000000000081526004018080602001828103825260298152602001806147f26029913960400191505060405180910390fd5b612b2583838361417e565b505050565b600281565b600033905090565b600073ffffffffffffffffffffffffffffffffffffffff168473ffffffffffffffffffffffffffffffffffffffff161415612bbd576040517f08c379a0000000000000000000000000000000000000000000000000000000008152600401808060200182810382526021815260200180614a156021913960400191505060405180910390fd5b8151835114612c17576040517f08c379a00000000000000000000000000000000000000000000000000000000081526004018080602001828103825260288152602001806149ed6028913960400191505060405180910390fd5b6000612c21612b2f565b9050612c3281600087878787612e5c565b60008090505b8451811015612d3e57612cca60026000878481518110612c5457fe5b6020026020010151815260200190815260200160002060008873ffffffffffffffffffffffffffffffffffffffff1673ffffffffffffffffffffffffffffffffffffffff16815260200190815260200160002054858381518110612cb457fe5b6020026020010151612f3290919063ffffffff16565b60026000878481518110612cda57fe5b6020026020010151815260200190815260200160002060008873ffffffffffffffffffffffffffffffffffffffff1673ffffffffffffffffffffffffffffffffffffffff168152602001908152602001600020819055508080600101915050612c38565b508473ffffffffffffffffffffffffffffffffffffffff16600073ffffffffffffffffffffffffffffffffffffffff168273ffffffffffffffffffffffffffffffffffffffff167f4a39dc06d4c0dbc64b70af90fd698a233a518aa5d07e595d983b8c0526c8f7fb8787604051808060200180602001838103835285818151815260200191508051906020019060200280838360005b83811015612def578082015181840152602081019050612dd4565b50505050905001838103825284818151815260200191508051906020019060200280838360005b83811015612e31578082015181840152602081019050612e16565b5050505090500194505050505060405180910390a4612e5581600087878787612fba565b5050505050565b612e6a86868686868661439a565b505050505050565b6000838311158290612f1f576040517f08c379a00000000000000000000000000000000000000000000000000000000081526004018080602001828103825283818151815260200191508051906020019080838360005b83811015612ee4578082015181840152602081019050612ec9565b50505050905090810190601f168015612f115780820380516001836020036101000a031916815260200191505b509250505060405180910390fd5b5060008385039050809150509392505050565b600080828401905083811015612fb0576040517f08c379a000000000000000000000000000000000000000000000000000000000815260040180806020018281038252601b8152602001807f536166654d6174683a206164646974696f6e206f766572666c6f77000000000081525060200191505060405180910390fd5b8091505092915050565b612fd98473ffffffffffffffffffffffffffffffffffffffff1661440e565b1561342a578373ffffffffffffffffffffffffffffffffffffffff1663bc197c8187878686866040518663ffffffff1660e01b8152600401808673ffffffffffffffffffffffffffffffffffffffff1673ffffffffffffffffffffffffffffffffffffffff1681526020018573ffffffffffffffffffffffffffffffffffffffff1673ffffffffffffffffffffffffffffffffffffffff168152602001806020018060200180602001848103845287818151815260200191508051906020019060200280838360005b838110156130bd5780820151818401526020810190506130a2565b50505050905001848103835286818151815260200191508051906020019060200280838360005b838110156130ff5780820151818401526020810190506130e4565b50505050905001848103825285818151815260200191508051906020019080838360005b8381101561313e578082015181840152602081019050613123565b50505050905090810190601f16801561316b5780820380516001836020036101000a031916815260200191505b5098505050505050505050602060405180830381600087803b15801561319057600080fd5b505af19250505080156131c457506040513d60208110156131b057600080fd5b810190808051906020019092919050505060015b61338b57600060405190506000815260011561328d5760443d10156131ec576000905061328d565b60046000803e60005160e01c6308c379a0811461320d57600091505061328d565b60043d036004833e81513d602482011167ffffffffffffffff821117156132395760009250505061328d565b808301805167ffffffffffffffff81111561325b57600094505050505061328d565b8060208301013d86018111156132795760009550505050505061328d565b601f19601f82011660405282955050505050505b80613298575061333a565b806040517f08c379a00000000000000000000000000000000000000000000000000000000081526004018080602001828103825283818151815260200191508051906020019080838360005b838110156132ff5780820151818401526020810190506132e4565b50505050905090810190601f16801561332c5780820380516001836020036101000a031916815260200191505b509250505060405180910390fd5b6040517f08c379a00000000000000000000000000000000000000000000000000000000081526004018080602001828103825260348152602001806146996034913960400191505060405180910390fd5b63bc197c8160e01b7bffffffffffffffffffffffffffffffffffffffffffffffffffffffff1916817bffffffffffffffffffffffffffffffffffffffffffffffffffffffff191614613428576040517f08c379a00000000000000000000000000000000000000000000000000000000081526004018080602001828103825260288152602001806146ef6028913960400191505060405180910390fd5b505b505050505050565b6134598160008085815260200190815260200160002060000161442190919063ffffffff16565b156134c157613466612b2f565b73ffffffffffffffffffffffffffffffffffffffff168173ffffffffffffffffffffffffffffffffffffffff16837f2f8788117e7eff1d82e926ec794901d17c78024a50270940304540a733656f0d60405160405180910390a45b5050565b6134ec8160008085815260200190815260200160002060000161445190919063ffffffff16565b15613554576134f9612b2f565b73ffffffffffffffffffffffffffffffffffffffff168173ffffffffffffffffffffffffffffffffffffffff16837ff6391f5c32d9c69d2a47ea670b442974b53935d1edc7fd64eb21e047a839171b60405160405180910390a45b5050565b600560009054906101000a900460ff166135da576040517f08c379a00000000000000000000000000000000000000000000000000000000081526004018080602001828103825260148152602001807f5061757361626c653a206e6f742070617573656400000000000000000000000081525060200191505060405180910390fd5b6000600560006101000a81548160ff0219169083151502179055507f5db9ee0a495bf2e6ff9c91a7834c1ba4fdd244a5e8aa4e537bd38aeae4b073aa61361e612b2f565b604051808273ffffffffffffffffffffffffffffffffffffffff1673ffffffffffffffffffffffffffffffffffffffff16815260200191505060405180910390a1565b600073ffffffffffffffffffffffffffffffffffffffff168373ffffffffffffffffffffffffffffffffffffffff1614156136e7576040517f08c379a00000000000000000000000000000000000000000000000000000000081526004018080602001828103825260238152602001806148a26023913960400191505060405180910390fd5b8051825114613741576040517f08c379a00000000000000000000000000000000000000000000000000000000081526004018080602001828103825260288152602001806149ed6028913960400191505060405180910390fd5b600061374b612b2f565b905061376b81856000868660405180602001604052806000815250612e5c565b60008090505b83518110156138915761381d83828151811061378957fe5b60200260200101516040518060600160405280602481526020016147a260249139600260008886815181106137ba57fe5b6020026020010151815260200190815260200160002060008973ffffffffffffffffffffffffffffffffffffffff1673ffffffffffffffffffffffffffffffffffffffff16815260200190815260200160002054612e729092919063ffffffff16565b6002600086848151811061382d57fe5b6020026020010151815260200190815260200160002060008773ffffffffffffffffffffffffffffffffffffffff1673ffffffffffffffffffffffffffffffffffffffff168152602001908152602001600020819055508080600101915050613771565b50600073ffffffffffffffffffffffffffffffffffffffff168473ffffffffffffffffffffffffffffffffffffffff168273ffffffffffffffffffffffffffffffffffffffff167f4a39dc06d4c0dbc64b70af90fd698a233a518aa5d07e595d983b8c0526c8f7fb8686604051808060200180602001838103835285818151815260200191508051906020019060200280838360005b83811015613942578082015181840152602081019050613927565b50505050905001838103825284818151815260200191508051906020019060200280838360005b83811015613984578082015181840152602081019050613969565b5050505090500194505050505060405180910390a450505050565b600073ffffffffffffffffffffffffffffffffffffffff168473ffffffffffffffffffffffffffffffffffffffff161415613a25576040517f08c379a0000000000000000000000000000000000000000000000000000000008152600401808060200182810382526021815260200180614a156021913960400191505060405180910390fd5b6000613a2f612b2f565b9050613a5081600087613a4188613d2f565b613a4a88613d2f565b87612e5c565b613ab3836002600087815260200190815260200160002060008873ffffffffffffffffffffffffffffffffffffffff1673ffffffffffffffffffffffffffffffffffffffff16815260200190815260200160002054612f3290919063ffffffff16565b6002600086815260200190815260200160002060008773ffffffffffffffffffffffffffffffffffffffff1673ffffffffffffffffffffffffffffffffffffffff168152602001908152602001600020819055508473ffffffffffffffffffffffffffffffffffffffff16600073ffffffffffffffffffffffffffffffffffffffff168273ffffffffffffffffffffffffffffffffffffffff167fc3d58168c5ae7397731d063d5bbf3d657854427343f4c083240f7aacaa2d0f628787604051808381526020018281526020019250505060405180910390a4613b9b81600087878787613d88565b5050505050565b600560009054906101000a900460ff1615613c25576040517f08c379a00000000000000000000000000000000000000000000000000000000081526004018080602001828103825260108152602001807f5061757361626c653a207061757365640000000000000000000000000000000081525060200191505060405180910390fd5b6001600560006101000a81548160ff0219169083151502179055507f62e78cea01bee320cd4e420270b5ea74000d11b0c9f74754ebdbfc544b05a258613c69612b2f565b604051808273ffffffffffffffffffffffffffffffffffffffff1673ffffffffffffffffffffffffffffffffffffffff16815260200191505060405180910390a1565b6000613cbb8360000183614481565b60001c905092915050565b6000613cee836000018373ffffffffffffffffffffffffffffffffffffffff1660001b614504565b905092915050565b6000613d0482600001614527565b9050919050565b6001816000016000828254019250508190555050565b600081600001549050919050565b6060806001604051908082528060200260200182016040528015613d625781602001602082028038833980820191505090505b5090508281600081518110613d7357fe5b60200260200101818152505080915050919050565b613da78473ffffffffffffffffffffffffffffffffffffffff1661440e565b15614176578373ffffffffffffffffffffffffffffffffffffffff1663f23a6e6187878686866040518663ffffffff1660e01b8152600401808673ffffffffffffffffffffffffffffffffffffffff1673ffffffffffffffffffffffffffffffffffffffff1681526020018573ffffffffffffffffffffffffffffffffffffffff1673ffffffffffffffffffffffffffffffffffffffff16815260200184815260200183815260200180602001828103825283818151815260200191508051906020019080838360005b83811015613e8c578082015181840152602081019050613e71565b50505050905090810190601f168015613eb95780820380516001836020036101000a031916815260200191505b509650505050505050602060405180830381600087803b158015613edc57600080fd5b505af1925050508015613f1057506040513d6020811015613efc57600080fd5b810190808051906020019092919050505060015b6140d7576000604051905060008152600115613fd95760443d1015613f385760009050613fd9565b60046000803e60005160e01c6308c379a08114613f59576000915050613fd9565b60043d036004833e81513d602482011167ffffffffffffffff82111715613f8557600092505050613fd9565b808301805167ffffffffffffffff811115613fa7576000945050505050613fd9565b8060208301013d8601811115613fc557600095505050505050613fd9565b601f19601f82011660405282955050505050505b80613fe45750614086565b806040517f08c379a00000000000000000000000000000000000000000000000000000000081526004018080602001828103825283818151815260200191508051906020019080838360005b8381101561404b578082015181840152602081019050614030565b50505050905090810190601f1680156140785780820380516001836020036101000a031916815260200191505b509250505060405180910390fd5b6040517f08c379a00000000000000000000000000000000000000000000000000000000081526004018080602001828103825260348152602001806146996034913960400191505060405180910390fd5b63f23a6e6160e01b7bffffffffffffffffffffffffffffffffffffffffffffffffffffffff1916817bffffffffffffffffffffffffffffffffffffffffffffffffffffffff191614614174576040517f08c379a00000000000000000000000000000000000000000000000000000000081526004018080602001828103825260288152602001806146ef6028913960400191505060405180910390fd5b505b505050505050565b600073ffffffffffffffffffffffffffffffffffffffff168373ffffffffffffffffffffffffffffffffffffffff161415614204576040517f08c379a00000000000000000000000000000000000000000000000000000000081526004018080602001828103825260238152602001806148a26023913960400191505060405180910390fd5b600061420e612b2f565b905061423e8185600061422087613d2f565b61422987613d2f565b60405180602001604052806000815250612e5c565b6142bb826040518060600160405280602481526020016147a2602491396002600087815260200190815260200160002060008873ffffffffffffffffffffffffffffffffffffffff1673ffffffffffffffffffffffffffffffffffffffff16815260200190815260200160002054612e729092919063ffffffff16565b6002600085815260200190815260200160002060008673ffffffffffffffffffffffffffffffffffffffff1673ffffffffffffffffffffffffffffffffffffffff16815260200190815260200160002081905550600073ffffffffffffffffffffffffffffffffffffffff168473ffffffffffffffffffffffffffffffffffffffff168273ffffffffffffffffffffffffffffffffffffffff167fc3d58168c5ae7397731d063d5bbf3d657854427343f4c083240f7aacaa2d0f628686604051808381526020018281526020019250505060405180910390a450505050565b6143a8868686868686614538565b6143b0611f54565b15614406576040517f08c379a000000000000000000000000000000000000000000000000000000000815260040180806020018281038252602c8152602001806147c6602c913960400191505060405180910390fd5b505050505050565b600080823b905060008111915050919050565b6000614449836000018373ffffffffffffffffffffffffffffffffffffffff1660001b614540565b905092915050565b6000614479836000018373ffffffffffffffffffffffffffffffffffffffff1660001b6145b0565b905092915050565b6000818360000180549050116144e2576040517f08c379a00000000000000000000000000000000000000000000000000000000081526004018080602001828103825260228152602001806146cd6022913960400191505060405180910390fd5b8260000182815481106144f157fe5b9060005260206000200154905092915050565b600080836001016000848152602001908152602001600020541415905092915050565b600081600001805490509050919050565b505050505050565b600061454c8383614504565b6145a55782600001829080600181540180825580915050600190039060005260206000200160009091909190915055826000018054905083600101600084815260200190815260200160002081905550600190506145aa565b600090505b92915050565b6000808360010160008481526020019081526020016000205490506000811461468c57600060018203905060006001866000018054905003905060008660000182815481106145fb57fe5b906000526020600020015490508087600001848154811061461857fe5b906000526020600020018190555060018301876001016000838152602001908152602001600020819055508660000180548061465057fe5b60019003818190600052602060002001600090559055866001016000878152602001908152602001600020600090556001945050505050614692565b60009150505b9291505056fe455243313135353a207472616e7366657220746f206e6f6e2045524331313535526563656976657220696d706c656d656e746572456e756d657261626c655365743a20696e646578206f7574206f6620626f756e6473455243313135353a204552433131353552656365697665722072656a656374656420746f6b656e73416363657373436f6e74726f6c3a2073656e646572206d75737420626520616e2061646d696e20746f206772616e74455243313135353a2062616c616e636520717565727920666f7220746865207a65726f2061646472657373455243313135353a2062617463682062616c616e636520717565727920666f7220746865207a65726f2061646472657373455243313135353a206275726e20616d6f756e7420657863656564732062616c616e6365455243313135355061757361626c653a20746f6b656e207472616e73666572207768696c6520706175736564455243313135353a2063616c6c6572206973206e6f74206f776e6572206e6f7220617070726f766564416363657373436f6e74726f6c3a2073656e646572206d75737420626520616e2061646d696e20746f207265766f6b65455243313135353a207472616e7366657220746f20746865207a65726f2061646472657373455243313135353a207472616e736665722063616c6c6572206973206e6f74206f776e6572206e6f7220617070726f766564455243313135353a206275726e2066726f6d20746865207a65726f2061646472657373455243313135355072657365744d696e7465725061757365723a206d7573742068617665206d696e74657220726f6c6520746f206d696e74455243313135353a20696e73756666696369656e742062616c616e636520666f72207472616e73666572455243313135355072657365744d696e7465725061757365723a206d75737420686176652070617573657220726f6c6520746f20756e7061757365455243313135355072657365744d696e7465725061757365723a206d75737420686176652070617573657220726f6c6520746f207061757365455243313135353a2073657474696e6720617070726f76616c2073746174757320666f722073656c66455243313135353a206163636f756e747320616e6420696473206c656e677468206d69736d61746368455243313135353a2069647320616e6420616d6f756e7473206c656e677468206d69736d61746368455243313135353a206d696e7420746f20746865207a65726f2061646472657373416363657373436f6e74726f6c3a2063616e206f6e6c792072656e6f756e636520726f6c657320666f722073656c66a26469706673582212200c897b7d4844b91d599bd77f0644a427232cb25f0115ea8538b72a995d8f0dcc64736f6c6343000602003368747470733a2f2f67616d652e6578616d706c652f6170692f6974656d2f7b69647d2e6a736f6e",
  "source": "pragma solidity ^0.6.0;\r\n\r\nimport \"@openzeppelin/contracts/GSN/Context.sol\";\r\nimport \"@openzeppelin/contracts/utils/Counters.sol\";\r\n// import \"@openzeppelin/contracts/token/ERC1155/ERC1155.sol\";\r\nimport \"@openzeppelin/contracts/presets/ERC1155PresetMinterPauser.sol\";\r\n\r\n//https://soliditydeveloper.com/erc-1155\r\n\r\ncontract KBRGameItems is ERC1155PresetMinterPauser {\r\n    using SafeMath for uint256;\r\n    using Counters for Counters.Counter;\r\n    Counters.Counter private itemId;\r\n    \r\n    address public governance;\r\n    \r\n    // uint256 public itemId;\r\n    uint256 public constant KAWAII_CAPPED   = 0;   // 3 Billion Cap\r\n    uint256 public constant SUPER_BOOTS     = 1; // Makes creature run faster\r\n    uint256 public constant TIMEWARP_CAPE   = 2; // Slows down time\r\n    uint256 public constant JETPACK         = 3; // A nifty jetpack\r\n    uint256 public constant THORS_HAMMER    = 4;\r\n    uint256 public constant SWORD           = 5;\r\n    uint256 public constant SHIELD          = 6;\r\n    uint256 public constant LOVE_GUN        = 7;\r\n\r\n    constructor(address _governance) public ERC1155PresetMinterPauser(\"https://game.example/api/item/{id}.json\") {\r\n        governance = _governance;\r\n\r\n        // KAWAII Tokens. 3 BILLION Marketcap\r\n        // _mint(address(this), KAWAII_CAPPED,    3 * (10**9), \"KAWAII\");\r\n\r\n        // Initial NFT Items\r\n        // _mint(address(this), SUPER_BOOTS,      10**18,      \"\");\r\n        // _mint(address(this), TIMEWARP_CAPE,    1,           \"\");\r\n        // _mint(address(this), JETPACK,          10**27,      \"\");\r\n        // _mint(address(this), THORS_HAMMER,     1,           \"\");\r\n        // _mint(address(this), SWORD,            10**9,       \"\");\r\n        // _mint(address(this), SHIELD,           10**9,       \"\");\r\n        // _mint(address(this), LOVE_GUN,         10**10,      \"\");\r\n        \r\n        // itemId.increment();\r\n        // itemId.increment();\r\n        // itemId.increment();\r\n        // itemId.increment();\r\n        // itemId.increment();\r\n        // itemId.increment();\r\n    }\r\n\r\n    function createItem(uint256 initialSupply) external onlyGovernance {\r\n        itemId.increment();\r\n        uint256 newItemId = itemId.current();\r\n        _mint(address(this), newItemId, initialSupply, \"\");\r\n    }\r\n\r\n    function mintBatchItems(\r\n        address to, \r\n        uint256[] memory ids, \r\n        uint256[] memory amounts, \r\n        bytes memory data) public onlyGovernance {\r\n\r\n        _mintBatch(to, ids, amounts, data);\r\n    }\r\n\r\n    modifier onlyGovernance() {\r\n        require(msg.sender == governance, \"Only governance can call this\");\r\n        _;\r\n    }\r\n}",
  "sourcePath": "C:/startup/open-dive/KawaiiBattleRoyaleSwitchBullet_Dapp/contracts/KBRGameItems.sol",
  "compiler": {
    "name": "solc",
    "version": "0.6.2+commit.bacdbe57.Emscripten.clang"
  },
  "schemaVersion": "3.3.2",
  "updatedAt": "2021-01-16T08:42:03.838Z",
  "networkType": "ethereum",
  "devdoc": {
    "methods": {
      "balanceOf(address,uint256)": {
        "details": "See {IERC1155-balanceOf}.     * Requirements:     * - `account` cannot be the zero address."
      },
      "balanceOfBatch(address[],uint256[])": {
        "details": "See {IERC1155-balanceOfBatch}.     * Requirements:     * - `accounts` and `ids` must have the same length."
      },
      "getRoleAdmin(bytes32)": {
        "details": "Returns the admin role that controls `role`. See {grantRole} and {revokeRole}.     * To change a role's admin, use {_setRoleAdmin}."
      },
      "getRoleMember(bytes32,uint256)": {
        "details": "Returns one of the accounts that have `role`. `index` must be a value between 0 and {getRoleMemberCount}, non-inclusive.     * Role bearers are not sorted in any particular way, and their ordering may change at any point.     * WARNING: When using {getRoleMember} and {getRoleMemberCount}, make sure you perform all queries on the same block. See the following https://forum.openzeppelin.com/t/iterating-over-elements-on-enumerableset-in-openzeppelin-contracts/2296[forum post] for more information."
      },
      "getRoleMemberCount(bytes32)": {
        "details": "Returns the number of accounts that have `role`. Can be used together with {getRoleMember} to enumerate all bearers of a role."
      },
      "grantRole(bytes32,address)": {
        "details": "Grants `role` to `account`.     * If `account` had not been already granted `role`, emits a {RoleGranted} event.     * Requirements:     * - the caller must have ``role``'s admin role."
      },
      "hasRole(bytes32,address)": {
        "details": "Returns `true` if `account` has been granted `role`."
      },
      "isApprovedForAll(address,address)": {
        "details": "See {IERC1155-isApprovedForAll}."
      },
      "mint(address,uint256,uint256,bytes)": {
        "details": "Creates `amount` new tokens for `to`, of token type `id`.     * See {ERC1155-_mint}.     * Requirements:     * - the caller must have the `MINTER_ROLE`."
      },
      "mintBatch(address,uint256[],uint256[],bytes)": {
        "details": "xref:ROOT:erc1155.adoc#batch-operations[Batched] variant of {mint}."
      },
      "pause()": {
        "details": "Pauses all token transfers.     * See {ERC1155Pausable} and {Pausable-_pause}.     * Requirements:     * - the caller must have the `PAUSER_ROLE`."
      },
      "paused()": {
        "details": "Returns true if the contract is paused, and false otherwise."
      },
      "renounceRole(bytes32,address)": {
        "details": "Revokes `role` from the calling account.     * Roles are often managed via {grantRole} and {revokeRole}: this function's purpose is to provide a mechanism for accounts to lose their privileges if they are compromised (such as when a trusted device is misplaced).     * If the calling account had been granted `role`, emits a {RoleRevoked} event.     * Requirements:     * - the caller must be `account`."
      },
      "revokeRole(bytes32,address)": {
        "details": "Revokes `role` from `account`.     * If `account` had been granted `role`, emits a {RoleRevoked} event.     * Requirements:     * - the caller must have ``role``'s admin role."
      },
      "safeBatchTransferFrom(address,address,uint256[],uint256[],bytes)": {
        "details": "See {IERC1155-safeBatchTransferFrom}."
      },
      "safeTransferFrom(address,address,uint256,uint256,bytes)": {
        "details": "See {IERC1155-safeTransferFrom}."
      },
      "setApprovalForAll(address,bool)": {
        "details": "See {IERC1155-setApprovalForAll}."
      },
      "supportsInterface(bytes4)": {
        "details": "See {IERC165-supportsInterface}.     * Time complexity O(1), guaranteed to always use less than 30 000 gas."
      },
      "unpause()": {
        "details": "Unpauses all token transfers.     * See {ERC1155Pausable} and {Pausable-_unpause}.     * Requirements:     * - the caller must have the `PAUSER_ROLE`."
      },
      "uri(uint256)": {
        "details": "See {IERC1155MetadataURI-uri}.     * This implementation returns the same URI for *all* token types. It relies on the token type ID substitution mechanism https://eips.ethereum.org/EIPS/eip-1155#metadata[defined in the EIP].     * Clients calling this function must replace the `\\{id\\}` substring with the actual token type ID."
      }
    }
  },
  "userdoc": {
    "methods": {}
  }
}