{
  "contractName": "KBRMarketplace",
  "abi": [
    {
      "inputs": [
        {
          "internalType": "contract IERC1155",
          "name": "_token",
          "type": "address"
        }
      ],
      "stateMutability": "nonpayable",
      "type": "constructor"
    },
    {
      "inputs": [
        {
          "internalType": "address",
          "name": "",
          "type": "address"
        },
        {
          "internalType": "address",
          "name": "",
          "type": "address"
        },
        {
          "internalType": "uint256[]",
          "name": "",
          "type": "uint256[]"
        },
        {
          "internalType": "uint256[]",
          "name": "",
          "type": "uint256[]"
        },
        {
          "internalType": "bytes",
          "name": "",
          "type": "bytes"
        }
      ],
      "name": "onERC1155BatchReceived",
      "outputs": [
        {
          "internalType": "bytes4",
          "name": "",
          "type": "bytes4"
        }
      ],
      "stateMutability": "nonpayable",
      "type": "function"
    },
    {
      "inputs": [
        {
          "internalType": "bytes4",
          "name": "interfaceId",
          "type": "bytes4"
        }
      ],
      "name": "supportsInterface",
      "outputs": [
        {
          "internalType": "bool",
          "name": "",
          "type": "bool"
        }
      ],
      "stateMutability": "view",
      "type": "function",
      "constant": true
    },
    {
      "inputs": [
        {
          "internalType": "uint256",
          "name": "_tokenId",
          "type": "uint256"
        }
      ],
      "name": "buyToken",
      "outputs": [],
      "stateMutability": "payable",
      "type": "function",
      "payable": true
    },
    {
      "inputs": [
        {
          "internalType": "uint256",
          "name": "_tokenId",
          "type": "uint256"
        },
        {
          "internalType": "uint256",
          "name": "_price",
          "type": "uint256"
        }
      ],
      "name": "updatePrice",
      "outputs": [],
      "stateMutability": "nonpayable",
      "type": "function"
    },
    {
      "inputs": [
        {
          "internalType": "address",
          "name": "_operator",
          "type": "address"
        },
        {
          "internalType": "address",
          "name": "_from",
          "type": "address"
        },
        {
          "internalType": "uint256",
          "name": "_id",
          "type": "uint256"
        },
        {
          "internalType": "uint256",
          "name": "_amount",
          "type": "uint256"
        },
        {
          "internalType": "bytes",
          "name": "_data",
          "type": "bytes"
        }
      ],
      "name": "onERC1155Received",
      "outputs": [
        {
          "internalType": "bytes4",
          "name": "",
          "type": "bytes4"
        }
      ],
      "stateMutability": "nonpayable",
      "type": "function"
    }
  ],
  "bytecode": "0x608060405234801561001057600080fd5b50604051610a6b380380610a6b8339818101604052602081101561003357600080fd5b810190808051906020019092919050505061005a6301ffc9a760e01b6101c160201b60201c565b61007963bc197c8160e01b63f23a6e6160e01b186101c160201b60201c565b600073ffffffffffffffffffffffffffffffffffffffff168173ffffffffffffffffffffffffffffffffffffffff16141561011c576040517f08c379a000000000000000000000000000000000000000000000000000000000815260040180806020018281038252601a8152602001807f43616e6e6f7420626520616e20656d707479206164647265737300000000000081525060200191505060405180910390fd5b80600160006101000a81548173ffffffffffffffffffffffffffffffffffffffff021916908373ffffffffffffffffffffffffffffffffffffffff160217905550655af3107a400060026000600181526020019081526020016000208190555065b5e620f48000600260006002815260200190815260200160002081905550660110d9316ec000600260006003815260200190815260200160002081905550506102c9565b63ffffffff60e01b817bffffffffffffffffffffffffffffffffffffffffffffffffffffffff1916141561025d576040517f08c379a000000000000000000000000000000000000000000000000000000000815260040180806020018281038252601c8152602001807f4552433136353a20696e76616c696420696e746572666163652069640000000081525060200191505060405180910390fd5b6001600080837bffffffffffffffffffffffffffffffffffffffffffffffffffffffff19167bffffffffffffffffffffffffffffffffffffffffffffffffffffffff1916815260200190815260200160002060006101000a81548160ff02191690831515021790555050565b610793806102d86000396000f3fe60806040526004361061004a5760003560e01c806301ffc9a71461004f5780632d296bf1146100c157806382367b2d146100ef578063bc197c8114610134578063f23a6e61146103b6575b600080fd5b34801561005b57600080fd5b506100a76004803603602081101561007257600080fd5b8101908080357bffffffffffffffffffffffffffffffffffffffffffffffffffffffff19169060200190929190505050610524565b604051808215151515815260200191505060405180910390f35b6100ed600480360360208110156100d757600080fd5b810190808035906020019092919050505061058b565b005b3480156100fb57600080fd5b506101326004803603604081101561011257600080fd5b8101908080359060200190929190803590602001909291905050506106e6565b005b34801561014057600080fd5b50610362600480360360a081101561015757600080fd5b81019080803573ffffffffffffffffffffffffffffffffffffffff169060200190929190803573ffffffffffffffffffffffffffffffffffffffff169060200190929190803590602001906401000000008111156101b457600080fd5b8201836020820111156101c657600080fd5b803590602001918460208302840111640100000000831117156101e857600080fd5b919080806020026020016040519081016040528093929190818152602001838360200280828437600081840152601f19601f8201169050808301925050505050505091929192908035906020019064010000000081111561024857600080fd5b82018360208201111561025a57600080fd5b8035906020019184602083028401116401000000008311171561027c57600080fd5b919080806020026020016040519081016040528093929190818152602001838360200280828437600081840152601f19601f820116905080830192505050505050509192919290803590602001906401000000008111156102dc57600080fd5b8201836020820111156102ee57600080fd5b8035906020019184600183028401116401000000008311171561031057600080fd5b91908080601f016020809104026020016040519081016040528093929190818152602001838380828437600081840152601f19601f8201169050808301925050505050505091929192905050506106ea565b60405180827bffffffffffffffffffffffffffffffffffffffffffffffffffffffff19167bffffffffffffffffffffffffffffffffffffffffffffffffffffffff1916815260200191505060405180910390f35b3480156103c257600080fd5b506104d0600480360360a08110156103d957600080fd5b81019080803573ffffffffffffffffffffffffffffffffffffffff169060200190929190803573ffffffffffffffffffffffffffffffffffffffff16906020019092919080359060200190929190803590602001909291908035906020019064010000000081111561044a57600080fd5b82018360208201111561045c57600080fd5b8035906020019184600183028401116401000000008311171561047e57600080fd5b91908080601f016020809104026020016040519081016040528093929190818152602001838380828437600081840152601f19601f8201169050808301925050505050505091929192905050506106ff565b60405180827bffffffffffffffffffffffffffffffffffffffffffffffffffffffff19167bffffffffffffffffffffffffffffffffffffffffffffffffffffffff1916815260200191505060405180910390f35b6000806000837bffffffffffffffffffffffffffffffffffffffffffffffffffffffff19167bffffffffffffffffffffffffffffffffffffffffffffffffffffffff1916815260200190815260200160002060009054906101000a900460ff169050919050565b6000349050600260008381526020019081526020016000205481101580156105c757506000600260008481526020019081526020016000205414155b6105d057600080fd5b600160009054906101000a900473ffffffffffffffffffffffffffffffffffffffff1673ffffffffffffffffffffffffffffffffffffffff1663f242432a30338560016040518563ffffffff1660e01b8152600401808573ffffffffffffffffffffffffffffffffffffffff1673ffffffffffffffffffffffffffffffffffffffff1681526020018473ffffffffffffffffffffffffffffffffffffffff1673ffffffffffffffffffffffffffffffffffffffff1681526020018381526020018281526020018060200182810382526000815260200160200195505050505050600060405180830381600087803b1580156106ca57600080fd5b505af11580156106de573d6000803e3d6000fd5b505050505050565b5050565b600063bc197c8160e01b905095945050505050565b60006040518080610726603891396038019050604051809103902090509594505050505056fe6f6e45524331313535526563656976656428616464726573732c616464726573732c75696e743235362c75696e743235362c627974657329a2646970667358221220dc1feb31e20b2248140f1fd6c12ad58cfb4d513eabad5b5e9a2d1430ef1f6bf864736f6c63430006020033",
  "source": "pragma solidity ^0.6.0;\r\n\r\nimport \"@openzeppelin/contracts/token/ERC1155/IERC1155.sol\";\r\nimport \"@openzeppelin/contracts/token/ERC1155/ERC1155Holder.sol\";\r\n\r\ncontract KBRMarketplace is ERC1155Holder{\r\n    IERC1155 private token;\r\n    mapping (uint => uint) price;\r\n\r\n    /**\r\n     * ERC155 address\r\n     */\r\n    constructor(IERC1155 _token) public {\r\n        require(address(_token) != address(0), 'Cannot be an empty address');\r\n        \r\n        token = _token;\r\n        price[1] = 100000000000000; // 0.001 ETH\r\n        price[2] = 200000000000000; //\r\n        price[3] = 300000000000000;\r\n    }\r\n\r\n    /**\r\n     * 1. Check if sent right amount\r\n     * 2. Check token with a given id exists\r\n     */\r\n    function buyToken(uint _tokenId) public payable {\r\n        uint256 weiAmount = msg.value;\r\n        require(weiAmount >= price[_tokenId] && price[_tokenId] != 0);\r\n\r\n        // safeTransferFrom(from, to, id, amount, data)\r\n        // We are always transfering one\r\n        token.safeTransferFrom(\r\n            address(this), \r\n            msg.sender, \r\n            _tokenId, \r\n            1, \r\n            ''\r\n        );\r\n        // emit TransferSingle(msg.sender, address(0x0), msg.sender, _id, _initialSupply);\r\n    }\r\n\r\n    function updatePrice(uint _tokenId, uint _price) public {       \r\n    }\r\n\r\n    /**\r\n    * @dev Will pass to onERC115Batch5Received\r\n    */\r\n    function onERC1155Received(\r\n        address _operator, \r\n        address _from, \r\n        uint256 _id, \r\n        uint256 _amount, \r\n        bytes memory _data) override public returns(bytes4)\r\n    {\r\n        return bytes4(keccak256(\"onERC1155Received(address,address,uint256,uint256,bytes)\"));\r\n    }\r\n    \r\n    /**\r\n     * onERC1155Received(address, address, uint256, uint256, bytes)\r\n     */\r\n    // function onERC1155Received(\r\n    //     address _operator, \r\n    //     address _from, \r\n    //     uint256 _id, \r\n    //     uint256 _value, \r\n    //     bytes memory _data) external returns(bytes4) {\r\n\r\n    //     return bytes4(keccak256(\"onERC1155Received(address,address,uint256,uint256,bytes)\"));\r\n    // }\r\n}",
  "sourcePath": "C:/startup/open-dive/KawaiiBattleRoyaleSwitchBullet_Dapp/contracts/KBRMarketplace.sol",
  "compiler": {
    "name": "solc",
    "version": "0.6.2+commit.bacdbe57.Emscripten.clang"
  },
  "schemaVersion": "3.3.2",
  "updatedAt": "2021-01-16T08:42:03.856Z",
  "networkType": "ethereum",
  "devdoc": {
    "methods": {
      "onERC1155Received(address,address,uint256,uint256,bytes)": {
        "details": "Will pass to onERC115Batch5Received"
      },
      "supportsInterface(bytes4)": {
        "details": "See {IERC165-supportsInterface}.     * Time complexity O(1), guaranteed to always use less than 30 000 gas."
      }
    }
  },
  "userdoc": {
    "methods": {
      "buyToken(uint256)": {
        "notice": "1. Check if sent right amount 2. Check token with a given id exists"
      },
      "constructor": "ERC155 address"
    }
  }
}