{
  "contractName": "KBRTournament",
  "abi": [
    {
      "inputs": [
        {
          "internalType": "uint256",
          "name": "",
          "type": "uint256"
        }
      ],
      "name": "newTournamentContracts",
      "outputs": [
        {
          "internalType": "address",
          "name": "",
          "type": "address"
        }
      ],
      "stateMutability": "view",
      "type": "function"
    },
    {
      "inputs": [],
      "name": "tournamentState",
      "outputs": [
        {
          "internalType": "enum KBRTournament.TOURNAMENT_STATE",
          "name": "",
          "type": "uint8"
        }
      ],
      "stateMutability": "view",
      "type": "function"
    }
  ],
  "bytecode": "0x608060405234801561001057600080fd5b5061015a806100206000396000f3fe608060405234801561001057600080fd5b50600436106100365760003560e01c80631fc6f61e1461003b578063eb917c5414610067575b600080fd5b6100436100d5565b6040518082600481111561005357fe5b60ff16815260200191505060405180910390f35b6100936004803603602081101561007d57600080fd5b81019080803590602001909291905050506100e8565b604051808273ffffffffffffffffffffffffffffffffffffffff1673ffffffffffffffffffffffffffffffffffffffff16815260200191505060405180910390f35b600160009054906101000a900460ff1681565b600081815481106100f557fe5b906000526020600020016000915054906101000a900473ffffffffffffffffffffffffffffffffffffffff168156fea26469706673582212206f2ad3d5d075a8b463332abb0453d27692e0d125efe75a757e9063d8c6fc916f64736f6c63430006020033",
  "source": "pragma solidity ^0.6.0;\r\n\r\nimport \"@openzeppelin/contracts/GSN/Context.sol\";\r\nimport \"@openzeppelin/contracts/access/Ownable.sol\";\r\n\r\ncontract KBRTournament {\r\n    address [] public newTournamentContracts;\r\n    enum TOURNAMENT_STATE { \r\n        CREATED, \r\n        OPEN, \r\n        CLOSED, \r\n        LEGENDARY_AIRDROP, \r\n        CALCULATING_WINNER \r\n    }\r\n    TOURNAMENT_STATE public tournamentState;\r\n    \r\n    mapping(uint256 => TournamentResult) TournamentResults;\r\n    uint256 tournamentId;\r\n\r\n    struct TournamentResult { \r\n        address winner;\r\n        uint nftID;\r\n        uint timeEnded;\r\n    }\r\n}",
  "sourcePath": "C:/startup/open-dive/KawaiiBattleRoyaleSwitchBullet_Dapp/contracts/KBRTournament.sol",
  "compiler": {
    "name": "solc",
    "version": "0.6.2+commit.bacdbe57.Emscripten.clang"
  },
  "schemaVersion": "3.3.2",
  "updatedAt": "2021-01-16T06:41:27.042Z",
  "devdoc": {
    "methods": {}
  },
  "userdoc": {
    "methods": {}
  }
}