{
  "contractName": "StakingPool",
  "abi": [
    {
      "inputs": [],
      "stateMutability": "nonpayable",
      "type": "constructor"
    },
    {
      "anonymous": false,
      "inputs": [
        {
          "indexed": false,
          "internalType": "address",
          "name": "playerAddress",
          "type": "address"
        }
      ],
      "name": "NewPlayerJoined",
      "type": "event"
    },
    {
      "inputs": [],
      "name": "CurrTournamentId",
      "outputs": [
        {
          "internalType": "uint256",
          "name": "",
          "type": "uint256"
        }
      ],
      "stateMutability": "view",
      "type": "function"
    },
    {
      "inputs": [],
      "name": "EntryPeriodEnd",
      "outputs": [
        {
          "internalType": "uint256",
          "name": "",
          "type": "uint256"
        }
      ],
      "stateMutability": "view",
      "type": "function"
    },
    {
      "inputs": [],
      "name": "EntryPeriodFinalized",
      "outputs": [
        {
          "internalType": "bool",
          "name": "",
          "type": "bool"
        }
      ],
      "stateMutability": "view",
      "type": "function"
    },
    {
      "inputs": [],
      "name": "admin",
      "outputs": [
        {
          "internalType": "address payable",
          "name": "",
          "type": "address"
        }
      ],
      "stateMutability": "view",
      "type": "function"
    },
    {
      "inputs": [
        {
          "internalType": "address",
          "name": "",
          "type": "address"
        }
      ],
      "name": "balances",
      "outputs": [
        {
          "internalType": "uint256",
          "name": "",
          "type": "uint256"
        }
      ],
      "stateMutability": "view",
      "type": "function"
    },
    {
      "inputs": [
        {
          "internalType": "address",
          "name": "",
          "type": "address"
        }
      ],
      "name": "changeClaimed",
      "outputs": [
        {
          "internalType": "bool",
          "name": "",
          "type": "bool"
        }
      ],
      "stateMutability": "view",
      "type": "function"
    },
    {
      "inputs": [],
      "name": "totalChange",
      "outputs": [
        {
          "internalType": "uint256",
          "name": "",
          "type": "uint256"
        }
      ],
      "stateMutability": "view",
      "type": "function"
    },
    {
      "inputs": [],
      "name": "totalStaked",
      "outputs": [
        {
          "internalType": "uint256",
          "name": "",
          "type": "uint256"
        }
      ],
      "stateMutability": "view",
      "type": "function"
    },
    {
      "inputs": [],
      "name": "stakeEntry",
      "outputs": [],
      "stateMutability": "payable",
      "type": "function"
    },
    {
      "inputs": [],
      "name": "finalize",
      "outputs": [],
      "stateMutability": "nonpayable",
      "type": "function"
    },
    {
      "inputs": [],
      "name": "getChange",
      "outputs": [],
      "stateMutability": "payable",
      "type": "function"
    }
  ],
  "bytecode": "0x608060405234801561001057600080fd5b50336000806101000a81548173ffffffffffffffffffffffffffffffffffffffff021916908373ffffffffffffffffffffffffffffffffffffffff16021790555062093a80420160028190555060006001819055506109b7806100746000396000f3fe60806040526004361061009c5760003560e01c80637aa8ff19116100645780637aa8ff191461017d578063817b1cd2146101e657806386a23b1514610211578063b7ed5abc14610240578063ef302c421461024a578063f851a440146102755761009c565b806327e235e3146100a15780634bb278f3146101065780635411c7bd1461011d578063635865ad14610148578063693a66ca14610173575b600080fd5b3480156100ad57600080fd5b506100f0600480360360208110156100c457600080fd5b81019080803573ffffffffffffffffffffffffffffffffffffffff1690602001909291905050506102cc565b6040518082815260200191505060405180910390f35b34801561011257600080fd5b5061011b6102e4565b005b34801561012957600080fd5b50610132610422565b6040518082815260200191505060405180910390f35b34801561015457600080fd5b5061015d610428565b6040518082815260200191505060405180910390f35b61017b61042e565b005b34801561018957600080fd5b506101cc600480360360208110156101a057600080fd5b81019080803573ffffffffffffffffffffffffffffffffffffffff169060200190929190505050610624565b604051808215151515815260200191505060405180910390f35b3480156101f257600080fd5b506101fb610644565b6040518082815260200191505060405180910390f35b34801561021d57600080fd5b5061022661064a565b604051808215151515815260200191505060405180910390f35b61024861065d565b005b34801561025657600080fd5b5061025f610956565b6040518082815260200191505060405180910390f35b34801561028157600080fd5b5061028a61095c565b604051808273ffffffffffffffffffffffffffffffffffffffff1673ffffffffffffffffffffffffffffffffffffffff16815260200191505060405180910390f35b60066020528060005260406000206000915090505481565b60025442101561035c576040517f08c379a00000000000000000000000000000000000000000000000000000000081526004018080602001828103825260158152602001807f546f6f206561726c7920746f2066696e616c697a65000000000000000000000081525060200191505060405180910390fd5b60001515600360009054906101000a900460ff161515146103e5576040517f08c379a00000000000000000000000000000000000000000000000000000000081526004018080602001828103825260148152602001807f546f75726e616d656e742068617320656e64656400000000000000000000000081525060200191505060405180910390fd5b6001600360006101000a81548160ff021916908315150217905550476004819055506801bc16d674ec800000478161041957fe5b06600581905550565b60055481565b60025481565b6002544211156104a6576040517f08c379a00000000000000000000000000000000000000000000000000000000081526004018080602001828103825260118152602001807f546f6f206c61746520746f20656e74657200000000000000000000000000000081525060200191505060405180910390fd5b6000600660003373ffffffffffffffffffffffffffffffffffffffff1673ffffffffffffffffffffffffffffffffffffffff168152602001908152602001600020541415610552577f15a1fb0af26c50b492dd92a93f4b246035e185297ac44414bd358844bc5583d933604051808273ffffffffffffffffffffffffffffffffffffffff1673ffffffffffffffffffffffffffffffffffffffff16815260200191505060405180910390a15b60006064600134028161056157fe5b049050600081340390506000809054906101000a900473ffffffffffffffffffffffffffffffffffffffff1673ffffffffffffffffffffffffffffffffffffffff166108fc839081150290604051600060405180830381858888f193505050501580156105d2573d6000803e3d6000fd5b5034600660003373ffffffffffffffffffffffffffffffffffffffff1673ffffffffffffffffffffffffffffffffffffffff168152602001908152602001600020600082825401925050819055505050565b60076020528060005260406000206000915054906101000a900460ff1681565b60045481565b600360009054906101000a900460ff1681565b60011515600360009054906101000a900460ff161515146106e6576040517f08c379a000000000000000000000000000000000000000000000000000000000815260040180806020018281038252601a8152602001807f456e74727920706572696f64206e6f742066696e616c697a656400000000000081525060200191505060405180910390fd5b6000600660003373ffffffffffffffffffffffffffffffffffffffff1673ffffffffffffffffffffffffffffffffffffffff168152602001908152602001600020541161079b576040517f08c379a000000000000000000000000000000000000000000000000000000000815260040180806020018281038252600f8152602001807f4e6f7420616e20696e766573746f72000000000000000000000000000000000081525060200191505060405180910390fd5b60001515600760003373ffffffffffffffffffffffffffffffffffffffff1673ffffffffffffffffffffffffffffffffffffffff16815260200190815260200160002060009054906101000a900460ff16151514610861576040517f08c379a00000000000000000000000000000000000000000000000000000000081526004018080602001828103825260168152602001807f4368616e676520616c726561647920636c61696d65640000000000000000000081525060200191505060405180910390fd5b6001600760003373ffffffffffffffffffffffffffffffffffffffff1673ffffffffffffffffffffffffffffffffffffffff16815260200190815260200160002060006101000a81548160ff0219169083151502179055506000600454600660003373ffffffffffffffffffffffffffffffffffffffff1673ffffffffffffffffffffffffffffffffffffffff16815260200190815260200160002054600554028161090957fe5b0490503373ffffffffffffffffffffffffffffffffffffffff166108fc829081150290604051600060405180830381858888f19350505050158015610952573d6000803e3d6000fd5b5050565b60015481565b6000809054906101000a900473ffffffffffffffffffffffffffffffffffffffff168156fea264697066735822122005490ea233347463590da05b4070799e50ae15b10b9bca234704f2a97bed2d2a64736f6c63430006020033",
  "source": "pragma solidity ^0.6.0;\r\n\r\ncontract StakingPool {\r\n    address payable public admin;\r\n    uint public CurrTournamentId;\r\n    uint public EntryPeriodEnd;\r\n    bool public EntryPeriodFinalized;\r\n    uint public totalStaked;\r\n    uint public totalChange;\r\n\r\n    mapping(address => uint) public balances;\r\n    mapping(address => bool) public changeClaimed;\r\n\r\n    event NewPlayerJoined(address playerAddress);\r\n\r\n    constructor() public {\r\n        admin = msg.sender;\r\n        // endTournament = block.timestamp + 7 days;\r\n        EntryPeriodEnd = now +7 days;\r\n        CurrTournamentId = 0;\r\n    }\r\n\r\n    function stakeEntry() external payable {\r\n        // require(block.timestamp <=  endTournament, 'Too late to enter');\r\n        require(now <=  EntryPeriodEnd, 'Too late to enter');\r\n        if(balances[msg.sender] == 0) {\r\n            emit NewPlayerJoined(msg.sender);\r\n        }\r\n\r\n        // Handle gas fee\r\n        uint fee = msg.value * 1 / 100;\r\n        uint amountStaked = msg.value - fee;\r\n        admin.transfer(fee);\r\n\r\n        balances[msg.sender] += msg.value;\r\n    }\r\n\r\n    function finalize() external {\r\n        require(now >= EntryPeriodEnd, 'Too early to finalize');\r\n        require(EntryPeriodFinalized == false, 'Tournament has ended');\r\n        EntryPeriodFinalized = true;\r\n        totalStaked = address(this).balance;\r\n        totalChange = address(this).balance % 32 ether;\r\n    }\r\n\r\n    function getChange() external payable {\r\n        require(EntryPeriodFinalized == true, 'Entry period not finalized');\r\n        require(balances[msg.sender] > 0, 'Not an investor');\r\n        require(changeClaimed[msg.sender] == false, 'Change already claimed');\r\n\r\n        changeClaimed[msg.sender] = true;\r\n        uint amount = totalChange * balances[msg.sender] / totalStaked;\r\n        msg.sender.transfer(amount);\r\n    }\r\n}",
  "sourcePath": "C:/startup/open-dive/KawaiiBattleRoyaleSwitchBullet_Dapp/contracts/KBRStakingPool.sol",
  "compiler": {
    "name": "solc",
    "version": "0.6.2+commit.bacdbe57.Emscripten.clang"
  },
  "schemaVersion": "3.3.2",
  "updatedAt": "2021-01-16T06:41:27.034Z",
  "devdoc": {
    "methods": {}
  },
  "userdoc": {
    "methods": {}
  }
}